:020000040800F2
:10000000B8090020650100086B1300086913000897
:1000100000000000000000000000000000000000E0
:100020000000000000000000000000006F13000846
:1000300000000000000000006D13000871130008AC
:1000400077010008770100087701000877010008B0
:1000500077010008770100087701000877010008A0
:100060007701000877010008F9020008050300087D
:100070007701000877010008770100087701000880
:100080007701000877010008770100087701000870
:100090007701000877010008770100087701000860
:1000A0007701000877010008770100087701000850
:1000B0007701000877010008770100087701000840
:1000C00000F002F800F03EF80CA030C80838241800
:1000D0002D18671EA246AB4654465D46AC4201D180
:1000E00000F030F87E460F3EB6460FCC0126334274
:1000F00000D0FB1A3343A246AB461847B4190000A0
:10010000D4190000103A02D378C878C1FAD852073F
:1001100001D330C830C101D504680C6070470000BD
:100120000023002400250026103A01D378C1FBD813
:10013000520700D330C100D50B6070471FB51FBDFB
:1001400010B510BD00F073F81146FFF7F7FF01F08E
:1001500015F900F08BF803B4FFF7F2FF03BC00F0D1
:1001600091F800000748804707480047FEE7FEE790
:10017000FEE7FEE7FEE7FEE704480549054A064BB1
:100180007047000079130008C1000008B803002080
:10019000B8090020B8050020B805002001E004C01F
:1001A000091F0429FBD28B0701D50280801CC907D7
:1001B00000D00270704700290BD0C30702D0027034
:1001C000401C491E022904D3830702D50280801CEB
:1001D000891EE3E70022EEE70022DFE77047704761
:1001E000704710B501469E240002CA15A307002AD5
:1001F00002D01843002A04DBA21A002A0CDDD040EA
:1002000010BD1206120E01D140004008A21A03D4FC
:10021000D04040420028F3DDFF2248001206904201
:1002200001D9002010BDC817C043584010BD754605
:1002300000F024F8AE46050069465346C008C000E9
:10024000854618B020B5FFF797FF60BCB64600267C
:100250000027C0C5C0C5C0C5C0C5C0C5C0C5C0C5D4
:10026000C0C5403D490849008D46704710B5044659
:10027000C046C0462046FFF76EFF10BD00487047DD
:100280001000002001491820ABBEFEE72600020046
:10029000704710B5446A204600F05EF801202071D6
:1002A00010BD10B5446A204600F036F801202071D8
:1002B00010BD10B5446A2069042101432161204624
:1002C00000F04CF80120207110BD10B5446A20697F
:1002D000042101432161204600F020F80120207113
:1002E00010BD80B5406A00F038F880BD80B5406A26
:1002F00000F013F880BD000080B5544800F01CF9F0
:1003000080BDC04680B5534800F016F980BDC04698
:10031000EFF3108072B6FEE7704770477047000039
:10032000B0B54379012B01D10220B0BD0223037186
:10033000084B9340046825689D430B68496819433E
:100340009140294321600021417101220271084638
:10035000B0BDC046FE0F000070477047704700797F
:10036000704710B500280FD004460079002804D14A
:1003700000206071204600F009F802202071002062
:1003800020610121217110BD012010BDF0B58BB09D
:10039000044600260A96099600682A49884201D038
:1003A0000BB0F0BD0127780727498A6802438A60AD
:1003B0008A6802400592059878040A6802430A6038
:1003C00009680140059108960320079030200690A7
:1003D00005980920C00606A900F098F91B4DB8023F
:1003E0003902802210231A4F2F6001936B60AE6098
:1003F0000292EA600391296104906861AE61EE6146
:10040000284600F003F9002801D0FFF781FF6C6255
:10041000A560104D14372F6001986860AE60029897
:10042000E8600398286104986861AE61EE6128462F
:1004300000F0ECF8002801D0FFF76AFF6C62E5607D
:100440000BB0F0BD00740040141002409C0100206D
:1004500030000240E0010020F0B583B0044640794E
:10046000012802D1022003B0F0BD0D460192029393
:1004700008990220207101276771002D14D0E068CF
:10048000274A284B284E8662C36202633B072268D4
:1004900016681E43166008291BD004291CD00029A9
:1004A0001DD1164614361BE0A068204B204E214A71
:1004B0008262C66203633A0326683368134333607B
:1004C000082914D0042915D0002916D13246083243
:1004D00014E016461C3603E01646183600E00026E7
:1004E000790713680B431360019932460BE03246DB
:1004F000103203E032460C3200E000227903336808
:100500000B4333600199029B00F0BEF8002060713C
:10051000AF4021680A683A430A6003B0F0BDC046A4
:10052000CB020008ED020008A3020008B302000895
:10053000E302000893020008F0B585B0C16B026CBD
:1005400004273C460292944003910E6821463140B4
:100550004B424B41049005682868014639404A42A5
:100560004A411A4330D00195012302270146394000
:100570004C424C41029A974037421D461946334639
:1005800000D02146049E3446203400292CD0082176
:100590000840474247411046D340190700D53D4621
:1005A000002D019B1ED119680E2291431960012173
:1005B0000A468240039B5A60B16300222270617038
:1005C000316B00290CD10DE02968890602D4296815
:1005D000B943296003994C60049EF16A002901D057
:1005E0003046884705B0F0BD019B1968890605D4DF
:1005F00019680A229143196001216170002121705C
:1006000003994F60B16A0029EAD1EBE7F0B585B0F4
:1006100000282FD004460646203602207070A2CC57
:10062000236860680190A0680290E06803902069E8
:1006300004900868114A02402A433A431A43019839
:1006400002430298024303980243049802430A605B
:100650000025E5620A48206335700A480C3C0818FA
:10066000142101F0B9F88000206401207070284640
:1006700005B0F0BD0125284605B0F0BD0FC0FFFF55
:1006800000000240F8FFFDBFF0B582B00446202014
:10069000255C0220012D2AD0264620360125357002
:1006A0007778012F21D1022070700020A063266886
:1006B0003768AF433760E76B0097276C0195BD4003
:1006C000009F7D6073606368102B174600D00F4653
:1006D000B760102B00D01146F1603168E26A002A41
:1006E000019B06D00E22114309E00021317002B0B7
:1006F000F0BD0A2211433160316804229143316018
:1007000031681943316002B0F0BD0000F0B58EB021
:100710000B916D490890884201D0052000E004202B
:100720000B9909680C91002900D1CBE01721C9066B
:10073000089A52180A21CA410092042A00D3009054
:100740000124002303940A931F4611E00C980143EF
:10075000069F5E4801600B9800680C90E0401B1DEE
:10076000641C0A99891C0A917F1C002800D1A9E009
:10077000611E0398099188400C9901400C91EAD0C0
:1007800007930B994D680326294631404A1E012ADA
:1007900006970295059419D803260A9A964004965E
:1007A000089B9A68B2430B9FFF680A9EB7401743A5
:1007B0009F60EA06D20F099FBA405F6887431743DC
:1007C0005F60069F0498C5437B000BE030460A9BA0
:1007D0009840C543032905D104950A983146079BE3
:1007E000029D24E0089EF06828400B9A92680193CD
:1007F0009A400243F2600229049515D11C20079B00
:1008000018400F218140099AD2089200089DAA1829
:10081000166A8E430B9F39698140314311627D68AE
:10082000069F0321294001E0079B029D019881401A
:10083000089C2068049E304008432060A803800F75
:10084000059C88D04F4F38680121084338603868CC
:1008500008400D900C2018400F2181400322099E72
:1008600096430D9A1A4FF2598A43009981401143D9
:10087000F151164881680B984068C20202D50C9A63
:10088000114301E00C9A9143104A9160D1688202B1
:1008900002D50C9A114301E00C9A91430B4AD160A6
:1008A0005168820302D50C9A114301E00C9A9143DE
:1008B000079B064F79603968C00300D546E70C985E
:1008C000814345E70EB0F0BD001000480004014030
:1008D00008000140002A02D01822815070472822C7
:1008E00081507047054800687047C0461A48007834
:1008F00002490A68101808607047C046B403002017
:1009000080B58D48016810220A430260032000F080
:1009100005F800F023F8002080BDC04670B50446FD
:100920007D20C0000C4E317800F056FF01468A4809
:10093000006800F051FF00F065FB0125032C08D88A
:10094000002806D10025E84321462A4600F028F871
:100950007460284670BDC0460000002082B009487F
:100960000168012211430160016811400191019960
:10097000110742680A4342604068084000900098AE
:1009800002B0704718100240002805D41F2108400B
:1009900001218140014801607047C04600E100E04C
:1009A000002805D40322034693430C4A9A1806E014
:1009B0000F220240083A03239A43074BD2188007BC
:1009C000C00E8901C9B28140FF238340106898435B
:1009D000084310607047C0461CED00E000E400E0F2
:1009E000F0B581B0002847D00446534A136801206F
:1009F00003408B4208D213680126B3430B431360B4
:100A0000126832408A4238D1009121688A074B4BE4
:100A100011D54A0707D507221202484B1B6813431A
:100A2000464A1360454B1A68F0239A43A368134360
:100A3000424A1360414BC90722D13F490868012649
:100A40003040009A904205D90868B04308600868B1
:100A5000C00712D12078400706D507200002196888
:100A60008143E068084318601A681007810F354811
:100A7000022912D2044650E00126304601B0F0BDF2
:100A8000616803290DD01A1F02290FD0012912D144
:100A9000126892030646F0D511E0032926D12A4CAC
:100AA0003BE01A6B92030646E7D508E01268920114
:100AB0000646E2D503E0126892070646DDD51868BF
:100AC0000326B04308431860FFF70CFF07461C4D90
:100AD0001A4B18680C210140606880008142ACD03C
:100AE000FFF700FFC01BA842F2D9C6E70321CB03E2
:100AF0001249896A0F240C401449095D94021A4076
:100B0000240F134D2C5D9A4202D033049A4200E028
:100B10000D4800F061FE4443084B18680006000FC2
:100B20000C49085CC4400C4804600320FFF7F6FE43
:100B30000026304601B0F0BD002002400410024003
:100B40008813000000127A00006CDC02A01A000872
:100B5000901A0008801A000808000020F0B587B03D
:100B600004460120002C00D145E204902078C00703
:100B7000F94E05940CD071680C200140042900D076
:100B800090E03068800303D56068002800D120E140
:100B90002078800721D570680007800F0ED070681C
:100BA0000C210140082900D09DE00320C00371689A
:100BB00001400120C003814200D094E030688007EA
:100BC000059C03D5E068012800D002E13068F821D7
:100BD00088432169C90001433160059C20780007E2
:100BE00024D42078400737D42078C00600D4D3E03E
:100BF00005984069411D00D1C2E0012800D030E1D4
:100C0000706B042101437163706B012101437163B7
:100C1000FFF768FE0546706B800700D5B4E0FFF76C
:100C200061FE411B03200229F5D9E4E1706AE16904
:100C3000002900D181E0012108437062FFF752FED4
:100C40000546706A8007CCD4FFF74CFE401B022893
:100C5000F7D9032007B0F0BD012003900107F06928
:100C60000840029006D1F0690843F061F06908403D
:100C7000069006980191E14F3868C0054AD4039860
:100C80000402386820433860FFF72CFE05463868B8
:100C900020423FD1FFF726FE401B6428F7D90320EE
:100CA00007B0F0BD71680140082908D10320C003D6
:100CB0007168014001200004814200D161E7616850
:100CC00001204704002900D117E1052900D12BE1BB
:100CD000012900D12CE1010432688A433260810489
:100CE0003068884327E13068059CE168002936D0E8
:100CF000012108433060FFF7F5FD054630688007A5
:100D000000D563E7FFF7EEFD401B0228F6D903206C
:100D100007B0F0BD05988068002800D1B6E005282E
:100D200000D1C9E0012800D1CAE0306A03998843A4
:100D30003062306A04218843C5E001218843706233
:100D4000FFF7D0FD0546706A800700D449E7FFF73A
:100D5000C9FD401B0228F6D9032007B0F0BD0121D0
:100D600088433060FFF7BEFD05463068800700D439
:100D700033E7FFF7B7FD411B03200229F5D93AE11C
:100D8000706B042188437063706BF8218843059968
:100D90008969C900014371630598007880060BD505
:100DA00071680C2001400C2939D1706B800303D588
:100DB0000598006A01280CD10598446A002C00D1DE
:100DC000E1E070680C210140082905D1012C00D018
:100DD000C4E0049807B0F0BD012002063168049217
:100DE000914331604706FFF77DFD0546022C0BD18C
:100DF000049C3068384200D1DEE0FFF773FD411BF0
:100E000003200229F5D9F6E03068384200D1BAE073
:100E1000FFF768FD411B03200229F5D9EBE071685B
:100E20000140082905D10320C003716801408142B7
:100E3000BBD0706B0599096A002900D1A9E0012196
:100E40000A04104370634C04FFF74CFD0546706BB9
:100E50002042B1D1FFF746FD411B03200229F6D9FC
:100E6000C9E0706B042101437163706B01218843F9
:100E70007063FFF737FD0546706B80078CD5FFF771
:100E800031FD411B03200229F6D9B4E0306A0399F1
:100E900088433062306A042188433062584CFFF73F
:100EA00021FD0546306A80071DD5FFF71BFD411B5C
:100EB0000320A142F6D99EE0306A04210143316249
:100EC000306A0399084330624D4CFFF70BFD05462D
:100ED000306A800707D4FFF705FD401BA042F7D911
:100EE000032007B0F0BD02980028059C00D07BE6E7
:100EF000F06901998843F06176E6010432688A431B
:100F000032608004316881433160FFF7EBFC0546B5
:100F1000059C3068384200D13AE6FFF7E3FC411BFC
:100F200003206429F5D966E0810432680A433260FF
:100F30000104306808433060FFF7D4FC0546306890
:100F4000384200D024E6FFF7CDFC401B6428F6D9D8
:100F5000032007B0F0BDC046001002400320C203CA
:100F600070680240F16A059CA36A9A42049D0DD103
:100F70000F221140236B994208D191040840E16A85
:100F80008842284637D1002007B0F0BD284607B078
:100F9000F0BD01210A04904370634C04FFF7A2FCEA
:100FA0000546706B204200D106E7FFF79BFC411B12
:100FB00003200229F5D91EE0F06A0F218843059A23
:100FC000116B0143F1627B20C00371688143D06AD9
:100FD0000843916A01437160306820433060FFF735
:100FE00081FC044630683842CDD1FFF77BFC011B01
:100FF00003200229F6D907B0F0BDC04600700040BA
:1010000088130000401E010E01D0012070470749DF
:10101000074A5060074803680B40032189075918A5
:10102000016000209060072111607047FFFFFF0002
:1010300010E000E020ED00E010B53C22825C012AC7
:1010400001D1022010BD02463C32022353700068D9
:1010500043687024A3430C681C4383684460674C56
:10106000A04207DC0124A407A04209D0664CA0429C
:1010700006D00AE0624CA04202D0624CA04204D1E9
:101080008024A34349681943816000201070012126
:10109000517010BD70B5002829D0044605463C3576
:1010A0006878002804D100202870204600F068F8F5
:1010B0000220687021680E6801208307994205D0DC
:1010C000504A914202D0504A914219D1702296431F
:1010D000A2683243494EB14216DD244B994208DCE6
:1010E000484B994218D0464B994215D03CE001201C
:1010F00070BD1F4B99420FD01E4B99420CD033E06C
:1011000032463E4EB142E8DC994205D03E4B994210
:1011100002D0194B994227D103231B029A4323691A
:10112000134380229343A2691A430A60E268CA62A9
:1011300062688A62114A8A180A23DA41072A06D8A5
:1011400003469340E122134201D062690A63486179
:10115000A872A870E87028716871A871E871287287
:1011600068726870002070BD1346DAE7FF430140E3
:1011700000480140004401400020004000D4FEBF70
:1011800081B001218A070068904201D001B0704708
:10119000044802680A430260006808400090009812
:1011A00001B070471C1002403D21415C01290FD164
:1011B00001463D3102220A7000681049884209DC6C
:1011C0000121890788420BD00F49884208D00EE0E0
:1011D000012070470A49884202D00A49884206D154
:1011E000816807220A40062A01D100207047016861
:1011F00001220A43026000207047C046FF2B0140D5
:1012000000400140002C014000040040F0B53C22A9
:10121000825C012A01D10220F0BD02463C32022349
:101220005370504E3346773B0468A0681840A06066
:101230000D6800234F2D1EDC1F2D35DD202D37D0EE
:10124000302D35D0402D00D086E0206A256A012659
:10125000B5432562A569F026B543CE6836012E4315
:10126000A6610A25A843496801432162A068472175
:101270000143302069E06F2D26DD01204703BD4288
:1012800040D00003854218461AD0702D64D1A06862
:1012900030404D688E68C9682E43090231430143CE
:1012A000A160A068772139E0002D01D0102D53D125
:1012B000A06870218843054307202843A060184692
:1012C000137001215170F0BD502D29D0602D43D1F4
:1012D0001020C043256A054025620F252D03A6690D
:1012E000AE43CD682D033543266AA561A025AE43E4
:1012F0004968090131432162A16867250D43054012
:10130000A56024E0A56835404E688F68C9683743FA
:10131000090239432943A1608003A168014315E014
:10132000206A256A0126B5432562A569F026B543E2
:10133000CE6836012E43A6610A25A84349680143B9
:101340002162A0685721014320208143A1601846F3
:10135000137001215170F0BD0120137001215170F3
:10136000F0BDC046FF00FFFFFEE7FEE77047704795
:1013700080B5FFF7BBFA80BD7047000094B0FFF75F
:10138000BFFA06AC201D3021FEF726FF00250F9581
:1013900001200E90202606962046FFF7DFFB00284E
:1013A00003D0EFF3108072B6FEE705950495032095
:1013B00003900720029002A801242146FFF710FBAA
:1013C000002803D0EFF3108072B6FEE701960A956D
:1013D0006004454A1168014311601168014002919F
:1013E00002980920C6066702304639462A46FFF7AA
:1013F00071FA099508950794069706A93046FFF7F4
:1014000085F939490868204308600868204006903B
:1014100006980A26304629462A46FFF7C1FA304682
:10142000FFF7B2FA0B26304629462A46FFF7B8FAEC
:101430003046FFF7A9FA2D482D4901600795242170
:101440000691FEF78EFF002803D0EFF3108072B6EE
:10145000FEE7264806A900263246FEF761FF00286F
:1014600003D0EFF3108072B6FEE7204D06A91022DC
:101470002846FEF755FF002803D0EFF3108072B620
:10148000FEE7EE6263202F21A2076A61A961EE6187
:1014900028626E6209960896079603960198029054
:1014A00014352846FFF7F6FD002803D0EFF310802F
:1014B00072B6FEE72003069006A92846FFF7A6FEAF
:1014C000002803D0EFF3108072B6FEE702A9284689
:1014D000FFF7B2FD002803D0EFF3108072B6FEE7ED
:1014E00000F008F8FEE7C04614100240700000202B
:1014F0000074004086B0B14D2846FFF755FE002429
:10150000AC612F2001229107296002926A60AC60D1
:10151000E8602C612846FFF7BDFDA94DC82128468B
:101520000491FEF759FEEE35A64E214607E02B4604
:10153000263B1A8028351431642900D185E01F2903
:10154000324600D322462A802029324600D3224642
:10155000AB1E1A802129324600D322462B1F1A8047
:101560002229324600D32246AB1F1A802329324655
:1015700000D322462B46083B1A802429324600D34A
:1015800022462B460A3B1A802529324600D32246A2
:101590002B460C3B1A802629324600D322462B4686
:1015A0000E3B1A802729324600D322462B46103B99
:1015B0001A802829324600D322462B46123B1A8035
:1015C0002929324600D322462B46143B1A802A2969
:1015D000324600D322462B46163B1A802B29324630
:1015E00000D322462B46183B1A802C29324600D3C2
:1015F00022462B461A3B1A802D29324600D322461A
:101600002B461C3B1A802E29324600D322462B46FD
:101610001E3B1A802F29324600D322462B46203B00
:101620001A803029324600D322462B46223B1A80AC
:101630003129324600D322462B46243B1A803229D8
:10164000324600D273E7224671E700215E4A0C461B
:101650000D4605910DE0084603905C4900F0B8F98D
:10166000FEF7BFFD788214340A35C82C0599564A16
:101670004ED0322D304600D3084610532A2D304626
:1016800000D30846171938822B2D30461BD2F8811B
:101690002C2D30461CD2B8812D2D30461DD278819C
:1016A0002E2D30461ED238812F2D30461FD2F88085
:1016B000302D304620D2B880312D304621D278806E
:1016C000292DC8D221E00846F8812C2D3046E2D3DE
:1016D0000846B8812D2D3046E1D3084678812E2D5D
:1016E0003046E0D3084638812F2D3046DFD30846F8
:1016F000F880302D3046DED30846B880312D304694
:10170000DDD308467880292DA5D27F20C005A3E728
:101710002F4EA520707003987060029840020390CD
:101720000920C00602902B4F244C206800254562FA
:101730000122029803990592FFF7CCF82068416ACC
:10174000C26A921E91420ED2416AC26A921E9142B0
:1017500009D2416AC26A921E914204D2416AC26AA7
:10176000921E9142EBD3029803992A46FFF7B2F8F2
:1017700035702846C0B27178C14005980140B170FB
:101780000095049841430E4842186424384629467F
:101790002346FEF761FE0095102138460A4A23468B
:1017A000FEF75AFE3846FEF7DAFD0228FAD0307806
:1017B000401C3070C1B20829DCD3B5E7840000209A
:1017C00024020020FF0F0000D400002000F07F451D
:1017D000CC0000207000002043088B421AD3002266
:1017E00003098B4279D3030A8B425ED3030B8B42EE
:1017F00042D3030C8B4227D30902FF2212BA030CF7
:101800008B4202D31212090203D0030B8B4233D353
:101810001AE0D3E0411A8041401C704703460B4355
:1018200071D443088B42F5D3002203098B4254D371
:10183000030A8B4239D3030B8B421DD3030C8B421B
:1018400002D394466EE0090AC30B8B4201D3CB034B
:10185000C01A5241830B8B4201D38B03C01A5241F1
:10186000430B8B4201D34B03C01A5241030B8B42F3
:1018700001D30B03C01A5241C30A8B4201D3CB02DE
:10188000C01A5241830A8B4201D38B02C01A5241C3
:10189000430A8B4201D34B02C01A5241030A8B42C6
:1018A00001D30B02C01A5241CDD2C3098B4201D3DE
:1018B000CB01C01A524183098B4201D38B01C01A5C
:1018C000524143098B4201D34B01C01A52410309D3
:1018D0008B4201D30B01C01A5241C3088B4201D382
:1018E000CB00C01A524183088B4201D38B00C01A2F
:1018F000524143088B4201D34B00C01A5241411A56
:10190000524110007047CA0F00D04942031000D363
:101910004042534000229C4603098B422DD3030AC8
:101920008B4212D38901FC2212BA030A8B420CD3D8
:10193000890192118B4208D3890192118B4204D301
:10194000890137D0921100E08909C3098B4201D384
:10195000CB01C01A524183098B4201D38B01C01ABB
:10196000524143098B4201D34B01C01A5241030932
:101970008B4201D30B01C01A5241C3088B4201D3E1
:10198000CB00C01A524183088B4201D38B00C01A8E
:101990005241D9D243088B4201D34B00C01A524165
:1019A000411A00D201465241104663465B1000D3F3
:1019B0004042704763465B1000D3404201B50021AE
:1019C000004201D0C9430846C046C04602BD0000DF
:1019D00070B5420064414B005C41120E39D01B0EC1
:1019E00038D0FF2A3CD0FF2B3AD0D2187F3A4002A1
:1019F0004902400A490A4518ED0106004E43000A13
:101A0000090A48430104731A4019190C4318990F25
:101A100004D05B08012149075B1A521CD80904D382
:101A2000401CF50301D19D0607D0FF2A08D2D50539
:101A300006D0E4072043401970BD0125A843F4E710
:101A4000002A01DCE00770BD2402FF202043C0050E
:101A500070BD1B0EFF2A03D0FF2B01D0E00770BD25
:101A6000FF2636064500B54206D84D00B54203D8DC
:101A7000D218FF2A00D0E7E7004870BD0000C07F01
:101A8000000000000000000001020304060708092E
:101A900002030405060708090A0B0C0D0E0F1010AF
:101AA0000102030405060708090A0B0C0D0E0F10AE
:101AB000D01A0008000000201000000004010008F7
:101AC000E01A000810000020A8090000200100080A
:101AD000010000000400000000127A000000000075
:04000005080000C12E
:00000001FF
