:020000040800F2
:100000001807002061010008B7150008B5150008A1
:1000100000000000000000000000000000000000E0
:10002000000000000000000000000000BB150008F8
:100030000000000000000000B9150008BD15000810
:1000400073010008730100087301000873010008C0
:1000500073010008730100087301000873010008B0
:1000600073010008730100087301000873010008A0
:100070007301000873010008730100087301000890
:100080007301000873010008730100087301000880
:100090007301000873010008730100087301000870
:1000A0007301000873010008730100087301000860
:1000B00073010008730100087301000800F002F8E2
:1000C00000F03EF80CA030C8083824182D18671E20
:1000D000A246AB4654465D46AC4201D100F030F832
:1000E0007E460F3EB6460FCC0126334200D0FB1AA7
:1000F0003343A246AB461847D0190000F019000060
:10010000103A02D378C878C1FAD8520701D330C860
:1001100030C101D504680C60704700000023002442
:1001200000250026103A01D378C1FBD8520700D32E
:1001300030C100D50B6070471FB51FBD10B510BD95
:1001400000F04DF81146FFF7F7FF01F03DFA00F01F
:1001500065F803B4FFF7F2FF03BC00F06BF8000092
:100160000748804707480047FEE7FEE7FEE7FEE74F
:10017000FEE7FEE704480549054A064B70470000C4
:10018000C5150008BD000008180100201807002050
:10019000180300201803002001E004C0091F0429EF
:1001A000FBD28B0701D50280801CC90700D00270EA
:1001B000704700290BD0C30702D00270401C491EB3
:1001C000022904D3830702D50280801C891EE3E73D
:1001D0000022EEE70022DFE7704770477047754660
:1001E00000F024F8AE46050069465346C008C0003A
:1001F000854618B020B5FFF7BDFF60BCB6460026A7
:100200000027C0C5C0C5C0C5C0C5C0C5C0C5C0C524
:10021000C0C5403D490849008D46704710B50446A9
:10022000C046C0462046FFF794FF10BD0048704707
:100230001000002001491820ABBEFEE72600020096
:100240007047000070B582B0054600240194006834
:10025000816803220A40012A05D10168C9070ED12D
:10026000C16809040BD48168214A11420AD0A86BE5
:1002700010210143A963E86B01242043E863204671
:1002800002B070BD816801220A438260664800683E
:10029000664901F005FB01900198002817D00198EC
:1002A000401E01900198002811D00198401E019035
:1002B000019800280BD00198401E01900198002859
:1002C00005D00198401E019001980028E7D100F068
:1002D0003BFC064628680068C007D0D100F034FC1B
:1002E000811B28680329F6D30168C907F3D1BEE74B
:1002F00017000080F0B583B0002302933422825CA3
:10030000012A02D1022003B0F0BD01930746343721
:100310000668B268520716D400970D684B6801242E
:100320002746AF403E4A934214D1B06AB843B06208
:10033000284610380228019E3046009F5BD8112DB8
:100340001AD03C4819E0816B20220A4382630120C5
:10035000019E50E0B26A3A43B262C06A421E072A66
:100360004CD2284610380228019E3046009F42D8C1
:10037000112D0DD020060CE02D48102D00D12E4857
:1003800028490A6802400A6030463E7003B0F0BD5A
:10039000A005102D00D1E00522490A6802430A6039
:1003A000102D304627D120480068204901F078FA06
:1003B0000A21414302910298002830461BD002983E
:1003C000401E02900298002811D00298401E029010
:1003D000029800280BD00298401E02900298002834
:1003E00005D00298401E029002980028E7D13046BE
:1003F0003E7003B0F0BD3E7003B0F0BD22079042E6
:10040000AFD072690720024089689142A9D0726911
:10041000824372610140706908437061A1E7C04680
:1004200001100000082701400800002040420F0092
:10043000FFFFBFFFFFFFFFFEFFFF7FFF0068006CB5
:1004400070470000F0B581B00125002862D0044655
:1004500006462436806B002803D0A06BC00609D561
:1004600054E000203074E063204600F097F8A06B61
:10047000C0064BD420688168490747D481214900D0
:10048000A26B8A43911CA163826803210A40012A5E
:1004900005D10268D2070ED1C26812040BD4C2681B
:1004A00018239A43A3681343C360890702698A43E8
:1004B000616811430161C168364A0A40C260A16A9D
:1004C000491E4A1E91410903227E9203637EDB038B
:1004D0001343A27E55031D43E36827692B430B4357
:1004E000B91E4D424D41AD001D43317849002943AD
:1004F000E37E012B14D1002A0FD0A26B20231343DB
:10050000A363E26B01231343E36309E0A06B1021B3
:100510000143A163284601B0F0BD0122120411433A
:10052000E269FF23C2339A4202D00A43216A11438F
:10053000C2680A43C260E26A531E072B24D2436991
:100540000725AB4343612A40436913434361C068B5
:10055000114A02408A420AD10025E563A06B0121BD
:10056000014302208143A163284601B0F0BDA06B86
:100570001021014302208143A163E06B0125284340
:10058000E063284601B0F0BD01231B079A42D6D094
:10059000DDE7C0461902FEFFE7FF3F8310B586B0D6
:1005A0000021059104910068104A904201D006B0E4
:1005B00010BDD0484268012301935C02224342608F
:1005C000426822400092009ADA04036813430360F1
:1005D00000681040009003910320029000980448A6
:1005E00001A900F0C5F906B010BDC04600240140C5
:1005F00000080048F0B581B00D460446406908285F
:1006000001D1082704E02068C068C00764D10C2726
:1006100000F09AFA06462168086838421CD001208A
:100620004202A36B1343A363CA681205920F66D1FB
:10063000A27E002A63D10A68120760D58A68520731
:1006400054D4224638324B680C25AB434B60FF250F
:1006500002351368AB4350E0681C39D0002D1BD124
:100660000868384221D008683842D8D10868384232
:100670001BD008683842D2D10868384215D00868C3
:100680003842CCD1086838420FD008683842E7D0E9
:10069000C5E708683842C2D100F056FA801B2168CD
:1006A000A842F6D908683842F3D1342000212154F9
:1006B000A06B04210143A163032001B0F0BD0868D1
:1006C0003842ACD108683842A9D108683842A6D16E
:1006D00008683842F3D0A2E7342000212154A06BEF
:1006E00020210143A163012001B0F0BDA26B2023B2
:1006F0001343A36322463C32E36B03431360227E21
:100700000020002A01D001B0F0BD0C220A6001B027
:10071000F0BD000070B504460068816802204907FA
:100720000FD43421615C01290BD0254634350126D4
:100730002E70607E012805D02046FFF783FD00283B
:1007400000D070BDA06B0849014030020818A063BA
:100750000020E06321681C220A6028708A68042354
:1007600013438B6070BDC046FEF0FFFFF0B581B053
:1007700004463420205C012802D1022001B0F0BDE3
:10078000264634360127377020688168490711D41E
:10079000826803210A40012A05D10268D20724D1C8
:1007A000C268120421D4FF200230A16B8143383487
:1007B00000203BE08168490706D58168890703D49A
:1007C000816810220A43826000F0BEF90546206865
:1007D00081684907DCD500F0B7F9411B206803297F
:1007E000F6D381684907F3D519E0826805231340E1
:1007F000012B14D18268022313438360016000F04F
:10080000A3F9054620688068C007CCD000F09CF9A9
:10081000411B20680329F6D38168C907F3D0A06B78
:1008200010210143A163E16B3C3438460022327051
:100830003943216001B0F0BDB0B54379012B01D13E
:100840000220B0BD02230371084B93400468256861
:100850009D430B6849681943914029432160002159
:100860004171012202710846B0BDC046FE0F000072
:1008700010B500280FD004460079002804D10020CC
:100880006071204600F00AF80220207100202061EB
:100890000121217110BD012010BD000010B586B0EE
:1008A0000021059104910068114A904201D006B0E0
:1008B00010BD012042070F4B9C6814439C609C684C
:1008C00014400094009A40041A6802431A601A689F
:1008D0000240009203910320029010200190092011
:1008E000C006009901A900F043F806B010BDC0464B
:1008F000007400401410024010B581B00024009430
:1009000000680090002904D000981018143000905E
:1009100003E0009810180830009000980360002051
:1009200001B010BD70B54279012A01D1022070BD1D
:1009300002240471012215468D4003681E682E436F
:100940001E601D6800290CD00F2189040D408D42C6
:1009500002D1596821435960002141710271084652
:1009600070BD3C210D403C2D1446F5D1F1E700004F
:10097000F0B58EB00B916D490890884201D00520EA
:1009800000E004200B9909680C91002900D1CBE00C
:100990001721C906089A52180A21CA410092042A4E
:1009A00000D300900124002303940A931F4611E012
:1009B0000C980143069F5E4801600B9800680C90FC
:1009C000E0401B1D641C0A99891C0A917F1C0028A9
:1009D00000D1A9E0611E0398099188400C9901405B
:1009E0000C91EAD007930B994D68032629463140B4
:1009F0004A1E012A06970295059419D803260A9AD9
:100A000096400496089B9A68B2430B9FFF680A9E23
:100A1000B74017439F60EA06D20F099FBA405F684C
:100A2000874317435F60069F0498C5437B000BE034
:100A300030460A9B9840C543032905D104950A987E
:100A40003146079B029D24E0089EF06828400B9ADF
:100A5000926801939A400243F2600229049515D1ED
:100A60001C20079B18400F218140099AD208920050
:100A7000089DAA18166A8E430B9F3969814031433D
:100A800011627D68069F0321294001E0079B029DBA
:100A900001988140089C2068049E304008432060F3
:100AA000A803800F059C88D04F4F38680121084368
:100AB0003860386808400D900C2018400F218140A4
:100AC0000322099E96430D9A1A4FF2598A430099C0
:100AD00081401143F151164881680B984068C20269
:100AE00002D50C9A114301E00C9A9143104A91608F
:100AF000D168820202D50C9A114301E00C9A91430D
:100B00000B4AD1605168820302D50C9A114301E06F
:100B10000C9A9143079B064F79603968C00300D552
:100B200046E70C98814345E70EB0F0BD0010004841
:100B30000004014008000140002A02D01822815020
:100B40007047282281507047054800687047C046AA
:100B50001A48007802490A68101808607047C046B1
:100B60001401002080B58748016810220A43026002
:100B7000032000F005F800F023F8002080BDC046F7
:100B800070B504467D20C0000C4E317800F088FE20
:100B900001468448006800F083FE00F059FB0125FF
:100BA000032C08D8002806D10025E84321462A4610
:100BB00000F01CF87460284670BDC046000000209C
:100BC00082B00948016801221143016001681140A7
:100BD00001910199110742680A4342604068084048
:100BE0000090009802B0704718100240002805D409
:100BF0000322034693430C4A9A1806E00F22024050
:100C0000083A03239A43074BD2188007C00E890184
:100C1000C9B28140FF2383401068984308431060A5
:100C20007047C0461CED00E000E400E0F0B581B084
:100C3000002847D00446534A1368012003408B42E2
:100C400008D213680126B3430B4313601268324085
:100C50008A4238D1009121688A074B4B11D54A0747
:100C600007D507221202484B1B681343464A1360FC
:100C7000454B1A68F0239A43A3681343424A136012
:100C8000414BC90722D13F49086801263040009AEC
:100C9000904205D90868B04308600868C00712D1BF
:100CA0002078400706D50720000219688143E068D4
:100CB000084318601A681007810F3548022912D2BC
:100CC000044650E00126304601B0F0BD61680329BA
:100CD0000DD01A1F02290FD0012912D112689203D8
:100CE0000646F0D511E0032926D12A4C3BE01A6BC9
:100CF00092030646E7D508E0126892010646E2D55F
:100D000003E0126892070646DDD518680326B04353
:100D100008431860FFF718FF07461C4D1A4B186868
:100D20000C210140606880008142ACD0FFF70CFFCD
:100D3000C01BA842F2D9C6E70321CB031249896A36
:100D40000F240C401449095D94021A40240F134DDE
:100D50002C5D9A4202D033049A4200E00D4800F024
:100D60009FFD4443084B18680006000F0C49085CBF
:100D7000C4400C4804600320FFF702FF0026304601
:100D800001B0F0BD002002400410024088130000B2
:100D900000127A00006CDC02B61A0008A61A0008DD
:100DA000961A000808000020F0B587B0044601201C
:100DB000002C00D145E204902078C007F94E05943C
:100DC0000CD071680C200140042900D090E03068FC
:100DD000800303D56068002800D120E120788007D7
:100DE00021D570680007800F0ED070680C2101407B
:100DF000082900D09DE00320C00371680140012054
:100E0000C003814200D094E030688007059C03D580
:100E1000E068012800D002E13068F82188432169A8
:100E2000C90001433160059C2078000724D4207854
:100E3000400737D42078C00600D4D3E00598406935
:100E4000411D00D1C2E0012800D030E1706B0421C7
:100E500001437163706B012101437163FFF774FEFD
:100E60000546706B800700D5B4E0FFF76DFE411BAF
:100E700003200229F5D9E4E1706AE169002900D173
:100E800081E0012108437062FFF75EFE0546706A4B
:100E90008007CCD4FFF758FE401B0228F7D9032067
:100EA00007B0F0BD012003900107F06908400290EF
:100EB00006D1F0690843F061F06908400690069891
:100EC0000191E14F3868C0054AD40398040238689C
:100ED00020433860FFF738FE0546386820423FD18E
:100EE000FFF732FE401B6428F7D9032007B0F0BD9E
:100EF00071680140082908D10320C00371680140CE
:100F000001200004814200D161E7616801204704AB
:100F1000002900D117E1052900D12BE1012900D1D9
:100F20002CE1010432688A433260810430688843CE
:100F300027E13068059CE168002936D0012108438B
:100F40003060FFF701FE05463068800700D563E793
:100F5000FFF7FAFD401B0228F6D9032007B0F0BDC9
:100F600005988068002800D1B6E0052800D1C9E0C6
:100F7000012800D1CAE0306A039988433062306AA0
:100F800004218843C5E0012188437062FFF7DCFD3E
:100F90000546706A800700D449E7FFF7D5FD401B7E
:100FA0000228F6D9032007B0F0BD01218843306044
:100FB000FFF7CAFD05463068800700D433E7FFF726
:100FC000C3FD411B03200229F5D93AE1706B0421CE
:100FD00088437063706BF821884305998969C9005B
:100FE000014371630598007880060BD571680C2069
:100FF00001400C2939D1706B800303D50598006A34
:1010000001280CD10598446A002C00D1E1E07068F9
:101010000C210140082905D1012C00D0C4E004981E
:1010200007B0F0BD0120020631680492914331609F
:101030004706FFF789FD0546022C0BD1049C30685A
:10104000384200D1DEE0FFF77FFD411B032002297B
:10105000F5D9F6E03068384200D1BAE0FFF774FD08
:10106000411B03200229F5D9EBE0716801400829F2
:1010700005D10320C003716801408142BBD0706B71
:101080000599096A002900D1A9E001210A04104349
:1010900070634C04FFF758FD0546706B2042B1D1D8
:1010A000FFF752FD411B03200229F6D9C9E0706BFE
:1010B000042101437163706B012188437063FFF762
:1010C00043FD0546706B80078CD5FFF73DFD411B46
:1010D00003200229F6D9B4E0306A039988433062CC
:1010E000306A042188433062584CFFF72DFD0546D5
:1010F000306A80071DD5FFF727FD411B0320A14261
:10110000F6D99EE0306A042101433162306A0399C6
:10111000084330624D4CFFF717FD0546306A8007E3
:1011200007D4FFF711FD401BA042F7D9032007B0F9
:10113000F0BD02980028059C00D07BE6F06901997B
:101140008843F06176E6010432688A4332608004A5
:10115000316881433160FFF7F7FC0546059C306834
:10116000384200D13AE6FFF7EFFC411B0320642927
:10117000F5D966E0810432680A43326001043068C0
:1011800008433060FFF7E0FC05463068384200D085
:1011900024E6FFF7D9FC401B6428F6D9032007B0EA
:1011A000F0BDC046001002400320C2037068024038
:1011B000F16A059CA36A9A42049D0DD10F22114049
:1011C000236B994208D191040840E16A884228467D
:1011D00037D1002007B0F0BD284607B0F0BD01218F
:1011E0000A04904370634C04FFF7AEFC0546706B35
:1011F000204200D106E7FFF7A7FC411B032002298C
:10120000F5D91EE0F06A0F218843059A116B01435E
:10121000F1627B20C00371688143D06A0843916A00
:1012200001437160306820433060FFF78DFC044655
:1012300030683842CDD1FFF787FC011B032002291B
:10124000F6D907B0F0BDC04600700040881300001A
:10125000401E010E01D0012070470749074A506027
:10126000074803680B4003218907591801600020D3
:101270009060072111607047FFFFFF0010E000E061
:1012800020ED00E010B53C22825C012A01D1022051
:1012900010BD02463C32022353700068436870243C
:1012A000A3430C681C4383684460674CA04207DC7E
:1012B0000124A407A04209D0664CA04206D00AE04F
:1012C000624CA04202D0624CA04204D18024A343CD
:1012D000496819438160002010700121517010BDD0
:1012E00070B5002829D0044605463C3568780028AA
:1012F00004D100202870204600F068F802206870B1
:1013000021680E6801208307994205D0504A914216
:1013100002D0504A914219D170229643A2683243BA
:10132000494EB14216DD244B994208DC484B9942A4
:1013300018D0464B994215D03CE0012070BD1F4BA0
:1013400099420FD01E4B99420CD033E032463E4EAC
:10135000B142E8DC994205D03E4B994202D0194B8C
:10136000994227D103231B029A4323691343802206
:101370009343A2691A430A60E268CA6262688A6299
:10138000114A8A180A23DA41072A06D803469340ED
:10139000E122134201D062690A634861A872A87011
:1013A000E87028716871A871E871287268726870B5
:1013B000002070BD1346DAE7FF43014000480140BA
:1013C000004401400020004000D4FEBF81B0012154
:1013D0008A070068904201D001B070470448026853
:1013E0000A430260006808400090009801B070470E
:1013F0001C1002403D21415C01290FD101463D31C5
:1014000002220A7000681049884209DC012189071C
:1014100088420BD00F49884208D00EE00120704767
:101420000A49884202D00A49884206D181680722C7
:101430000A40062A01D100207047016801220A43B0
:10144000026000207047C046FF2B01400040014071
:10145000002C014000040040F0B53C22825C012ACF
:1014600001D10220F0BD02463C3202235370504E9F
:101470003346773B0468A0681840A0600D680023DD
:101480004F2D1EDC1F2D35DD202D37D0302D35D0D2
:10149000402D00D086E0206A256A0126B5432562EA
:1014A000A569F026B543CE6836012E43A6610A250C
:1014B000A843496801432162A068472101433020C5
:1014C00069E06F2D26DD01204703BD4240D00003B7
:1014D000854218461AD0702D64D1A06830404D68FE
:1014E0008E68C9682E43090231430143A160A06898
:1014F000772139E0002D01D0102D53D1A068702143
:101500008843054307202843A06018461370012133
:101510005170F0BD502D29D0602D43D11020C04313
:10152000256A054025620F252D03A669AE43CD68C7
:101530002D033543266AA561A025AE4349680901FC
:1015400031432162A16867250D430540A56024E071
:10155000A56835404E688F68C9683743090239432A
:101560002943A1608003A168014315E0206A256A30
:101570000126B5432562A569F026B543CE6836013C
:101580002E43A6610A25A843496801432162A06849
:101590005721014320208143A16018461370012187
:1015A0005170F0BD0120137001215170F0BDC04693
:1015B000FF00FFFFFEE7FEE77047704780B5FFF7CB
:1015C000C7FA80BD7047000094B0FFF7CBFA06ACB5
:1015D000201D30252946FEF7FDFD01200E900695C1
:1015E00000250F9510210C910B902046FFF7DCFB96
:1015F000002803D0EFF3108072B6FEE7059504953E
:10160000032003900720029002A801242146FFF73F
:101610000DFB002803D0EFF3108072B6FEE70A95A9
:10162000E0044B490A6802430A600A6802400292D9
:10163000029860040A6802430A6009680140029146
:1016400002980920C6066702304639462A46FFF747
:1016500073FA099508950794069706A93046FFF78F
:1016600087F938203B4E3554F463A0027063802024
:101670000421394A7261B561F56135627462B16203
:10168000F5623063374614373846FEF7DBFE002834
:1016900003D0EFF3108072B6FEE70A200690200711
:1016A000089020030190079006A93846FEF722FE15
:1016B000002803D0EFF3108072B6FEE7019F2748A1
:1016C00030600795242006903046FFF7D1F80028B7
:1016D00003D0EFF3108072B6FEE71E4806A900257E
:1016E0002A46FFF7A9F8002803D0EFF3108072B65E
:1016F000FEE766488561E943A20724C005604160B2
:101700008560099508950795039520210291083871
:10171000FFF7E6FD002803D0EFF3108072B6FEE776
:1017200006975A4806A9FFF797FE002803D0EFF363
:10173000108072B6FEE7554802A9FFF7A3FD002806
:1017400003D0EFF3108072B6FEE700F009F8FEE771
:101750001410024078000020002401400074004072
:1017600082B04A4C2046FFF745FE0026A661484855
:101770002F22019201218907009146C420606660F2
:101780000C3C2046FFF7ACFD424FBE603846FEF7EA
:1017900059FE3846FEF7BEFFF54338462946FEF7A8
:1017A00029FF3846FEF74AFE3B4908800C4638467A
:1017B000FEF7DCFF0820B8603846FEF743FE3846E7
:1017C000FEF7A8FF38462946FEF714FF3846FEF715
:1017D00035FE60803846FEF7C9FF1020B8603846F5
:1017E000FEF730FE3846FEF795FF38462946FEF7ED
:1017F00001FF3846FEF722FEA0803846FEF7B6FF0E
:101800001820B8603846FEF71DFE3846FEF782FF06
:1018100038462C462946FEF7EDFE3846FEF70EFE0A
:101820001D49C8803846FEF7A1FFBE603846FEF766
:1018300009FE16498E616320009A0A60019A4A6087
:101840008E60C8600E610846FFF74AFD3D46384687
:10185000FEF760FF114F38463146FFF763F82E461A
:1018600028462146FEF7C6FE2846FEF7E7FD0A4950
:10187000088083B20026384631463246FFF73CF8EE
:1018800038463146FFF74EF8E9E7C046CC00002065
:101890000F2700008C00002070000020780000203E
:1018A00043088B421AD3002203098B4279D3030ADF
:1018B0008B425ED3030B8B4242D3030C8B4227D364
:1018C0000902FF2212BA030C8B4202D31212090240
:1018D00003D0030B8B4233D31AE0D3E0411A80418B
:1018E000401C704703460B4371D443088B42F5D329
:1018F000002203098B4254D3030A8B4239D3030BD2
:101900008B421DD3030C8B4202D394466EE0090A2E
:10191000C30B8B4201D3CB03C01A5241830B8B42C2
:1019200001D38B03C01A5241430B8B4201D34B03AB
:10193000C01A5241030B8B4201D30B03C01A524110
:10194000C30A8B4201D3CB02C01A5241830A8B4295
:1019500001D38B02C01A5241430A8B4201D34B027E
:10196000C01A5241030A8B4201D30B02C01A5241E2
:10197000CDD2C3098B4201D3CB01C01A5241830996
:101980008B4201D38B01C01A524143098B4201D3D0
:101990004B01C01A524103098B4201D30B01C01AFB
:1019A0005241C3088B4201D3CB00C01A5241830875
:1019B0008B4201D38B00C01A524143088B4201D3A2
:1019C0004B00C01A5241411A524110007047CA0FD1
:1019D00000D04942031000D34042534000229C46AD
:1019E00003098B422DD3030A8B4212D38901FC22B7
:1019F00012BA030A8B420CD3890192118B4208D38D
:101A0000890192118B4204D3890137D0921100E0F1
:101A10008909C3098B4201D3CB01C01A5241830902
:101A20008B4201D38B01C01A524143098B4201D32F
:101A30004B01C01A524103098B4201D30B01C01A5A
:101A40005241C3088B4201D3CB00C01A52418308D4
:101A50008B4201D38B00C01A5241D9D243088B422A
:101A600001D34B00C01A5241411A00D201465241E3
:101A7000104663465B1000D34042704763465B10DC
:101A800000D3404201B50021004201D0C9430846BD
:101A9000C046C04602BD0000000000000000010278
:101AA00003040607080902030405060708090A0BD0
:101AB0000C0D0E0F10100102030405060708090A99
:101AC0000B0C0D0E0F100000E81A0008000000209B
:101AD0001000000000010008F81A000810000020A3
:101AE000080700001C0100080100000004000000BD
:081AF00000127A000000000062
:04000005080000BD32
:00000001FF
