:020000040800F2
:100000001807002065010008E92500086F24000892
:1000100000000000000000000000000000000000E0
:10002000000000000000000000000000EF250008B4
:100030000000000000000000ED2500084126000837
:1000400077010008770100087701000877010008B0
:1000500077010008770100087701000877010008A0
:100060007701000877010008770100087701000890
:100070007701000877010008770100087701000880
:100080007701000877010008770100087701000870
:100090007701000877010008770100087701000860
:1000A0007701000877010008770100087701000850
:1000B0007701000877010008770100087701000840
:1000C00000F002F800F03EF80CA030C80838241800
:1000D0002D18671EA246AB4654465D46AC4201D180
:1000E00000F030F87E460F3EB6460FCC0126334274
:1000F00000D0FB1A3343A246AB461847202A000023
:10010000402A0000103A02D378C878C1FAD85207C2
:1001100001D330C830C101D504680C6070470000BD
:100120000023002400250026103A01D378C1FBD813
:10013000520700D330C100D50B6070471FB51FBDFB
:1001400010B510BD00F0A3F91146FFF7F7FF02F05C
:10015000FDFB00F0BBF903B4FFF7F2FF03BC00F0B6
:10016000C1F900000748804707480047FEE7FEE75F
:10017000FEE7FEE7FEE7FEE704480549054A064BB1
:1001800070470000A9260008C100000818010020DF
:100190001807002018030020180300204343514390
:1001A00030B55C18010C130C0D4692B25D4380B261
:1001B00051432C19054655430A0C09044D19624157
:1001C0005843010C00044019514130BDFEB50446AE
:1001D00010460D46184373D0A6468C460020A41A3C
:1001E00001469D4167D36646002701243D46B61A65
:1001F0009D4102D313463A462124654676462F0494
:10020000360C3E432D0CB61A9D4104D3150C1B042D
:100210002B4312041034654676462F06360A3E43B9
:100220002D0AB61A9D4104D3150E1B022B43120250
:100230000834654676462F0736093E432D09B61A1F
:100240009D4104D3150F1B012B431201241D65464C
:100250007646AF07B6083E43AD08B61A9D4104D3B3
:10026000950F9B002B439200A41C65467646EF0732
:1002700076083E436D08B61A9D411AD392185B4129
:10028000641C16E00018764665464941B71A9D4140
:100290000191009009D36046B11A98418E46844678
:1002A000009801990025401C6941DD0752082A4346
:1002B0005B08641EE6D57246634603B0F0BDFFE7F7
:1002C0002046284307D00020C0430146C046C04610
:1002D00022462B46F1E700200146F7E701E004C083
:1002E000091F0429FBD28B0701D50280801CC90796
:1002F00000D00270704700290BD0C30702D00270F3
:10030000401C491E022904D3830702D50280801CA9
:10031000891EE3E70022EEE70022DFE7002203095F
:100320008B422CD3030A8B4211D300239C464EE010
:1003300003460B433CD4002243088B4231D30309CC
:100340008B421CD3030A8B4201D394463FE0C3097E
:100350008B4201D3CB01C01A524183098B4201D396
:100360008B01C01A524143098B4201D34B01C01A81
:10037000524103098B4201D30B01C01A5241C308F9
:100380008B4201D3CB00C01A524183088B4201D368
:100390008B00C01A524143088B4201D34B00C01A54
:1003A0005241411A00D201465241104670475DE069
:1003B000CA0F00D04942031000D3404253409C462C
:1003C000002203098B422DD3030A8B4212D38901E9
:1003D000FC2212BA030A8B420CD3890192118B4280
:1003E00008D3890192118B4204D389013AD092112A
:1003F00000E08909C3098B4201D3CB01C01A5241E5
:1004000083098B4201D38B01C01A524143098B42AD
:1004100001D34B01C01A524103098B4201D30B0196
:10042000C01A5241C3088B4201D3CB00C01A5241BB
:1004300083088B4201D38B00C01A5241D9D24308A2
:100440008B4201D34B00C01A5241411A00D20146DF
:100450005241104663465B1001D34042002B00D549
:100460004942704763465B1000D3404201B50549DD
:10047000002802DC491C084000E00846C046C0468F
:1004800002BD00BFFFFFFF7F704770477047754692
:1004900000F024F8AE46050069465346C008C00087
:1004A000854618B020B5FFF767FE60BCB64600264B
:1004B0000027C0C5C0C5C0C5C0C5C0C5C0C5C0C572
:1004C000C0C5403D490849008D46704710B50446F7
:1004D000C046C0462046FFF73EFE10BD00487047AC
:1004E0001000002001491820ABBEFEE726000200E4
:1004F000704780B584B00290002001900298006897
:1005000080684007002804D4FFE70020002804D1B9
:1005100041E0002000283ED1FFE702980068806893
:10052000400700280ED5FFE7029800688068800722
:10053000002807D4FFE7029801688868102210435A
:100540008860FFE700F0D6FF0190FFE7029800689F
:100550008068400700281DD5FFE700F0CBFF019918
:10056000401A032815D3FFE7029800688068400707
:1005700000280DD5FFE70299886B1022104388638D
:10058000029AD16B01200143D16303A9087006E0F0
:10059000FFE7DBE7FFE703A900200870FFE703A8F8
:1005A000007804B080BD80B586B004900020039030
:1005B000049909688968032211400129029013D126
:1005C000FFE70498006801680120C907002901902D
:1005D00007D1FFE704980068C06880B2C00B0190A3
:1005E000FFE701980290FFE70298C00700284BD070
:1005F000FFE70498006880680521084001280DD1B4
:10060000FFE7FFE7049801688868022210438860CA
:100610000498016803200860FFE70CE00499886BE8
:10062000102210438863049AD16B01200143D163E7
:1006300005A908702CE000F05DFF0390FFE7049827
:1006400000688068C00700281DD0FFE700F052FF57
:100650000399401A032815D3FFE7049800688068BF
:10066000C00700280DD0FFE70499886B10221043C3
:100670008863049AD16B01200143D16305A90870F6
:1006800006E0FFE7DBE7FFE705A900200870FFE7CA
:1006900005A8007806B080BD80B586B00490002023
:1006A0000390029004990968896803221140012986
:1006B000019013D1FFE70498006801680120C90781
:1006C0000029009007D1FFE704980068C06880B255
:1006D000C00B0090FFE700980190FFE70198C0076A
:1006E000002852D1FFE70498006880682B4908422F
:1006F0000DD0FFE70499886B102210438863049A99
:10070000D16B01200143D16305A9087041E0049831
:1007100001688868012210438860C1480068C149A7
:10072000FFF7FCFD0290FFE70298002804D0FFE7E6
:100730000298401E0290F7E700F0DCFE0390FFE70E
:10074000049800680068C00700281DD1FFE700F08A
:10075000D1FE0399401A032815D3FFE704980068D7
:100760000068C00700280DD1FFE70499886B1022AC
:1007700010438863049AD16B01200143D16305A91A
:10078000087006E0FFE7DBE7FFE705A90020087037
:10079000FFE705A8007806B080BDC04617000080BE
:1007A00081B0EFF3108072B60090FFE7FEE7000023
:1007B00080B58CB00A90099108A9002008700790B4
:1007C0000A98C06A01210907884224D0FFE70A98E5
:1007D000C06A01281FD0FFE70A98C06A02281AD011
:1007E000FFE70A98C06A032815D0FFE70A98C06A95
:1007F000042810D0FFE70A98C06A05280BD0FFE74D
:100800000A98C06A062806D0FFE70A98C06A072837
:1008100001D0FFE7FFE7FFE70A983421405C012899
:1008200004D1FFE70BA902200870F0E00A993422F6
:1008300001208854FFE7FFE70A98006880680421D8
:1008400008408008002800D0CEE00998406872492E
:10085000884200D191E00998006801210B4683404D
:100860000A980268906A184390620A98C06A090759
:1008700088423DD0FFE70A98C06A012838D0FFE7D8
:100880000A98C06A022833D0FFE70A98C06A032892
:100890002ED0FFE70A98C06A042829D0FFE70A98FB
:1008A000C06A052824D0FFE70A98C06A06281FD02E
:1008B000FFE70A98C06A07281AD0FFE709988068FE
:1008C0000A99096849690722114088420FD0FFE759
:1008D0000A980268516907208143516109998A6821
:1008E00002400A980168486910434861FFE7FFE742
:1008F0000998006810280AD0FFE7099800681128B5
:1009000005D0FFE709980068122835D1FFE709985C
:100910000068102804D1FFE70120C00506900DE013
:100920000998016801229005120604921129059088
:1009300001D00498059005980690FFE7069A37497C
:1009400008681043086009980068102813D1FFE771
:10095000334800683349FFF7E1FC01460A20484369
:100960000790FFE70798002804D0FFE70798401E8C
:100970000790F7E7FFE7FFE735E0099800680122F5
:1009800082400A980168886A9043886209980068E2
:1009900010280AD0FFE709980068112805D0FFE762
:1009A0000998006812281DD1FFE7099800681028EF
:1009B00004D1FFE70120C00503900DE0099801680C
:1009C00001229005120601921129029001D001988E
:1009D000029002980390FFE7039A10490868904339
:1009E0000860FFE7FFE708E00A99886B20221043C0
:1009F000886308A901200870FFE7FFE70A993422FD
:100A000000208854FFE708980BA90870FFE70BA89F
:100A100000780CB080BDC0460110000008270140DE
:100A20000000002040420F0081B000900098006854
:100A3000006C01B07047000080B586B0049003A937
:100A40000020087002900498002804D1FFE705A94F
:100A50000120087023E10498806B00280AD1FFE789
:100A600004990020C863049934228854049800F043
:100A70001FF9FFE70498806BC006002800D501E14C
:100A800003A80078002800D0FCE004980068806883
:100A9000042108408008002800D0F3E00498806B0F
:100AA00002210843012109028843049988630498BC
:100AB000006881680320014000200129019013D1C2
:100AC000FFE70498006801680120C9070029009029
:100AD00007D1FFE704980068C06880B2C00B00909F
:100AE000FFE700980190FFE70198C007002816D1A2
:100AF000FFE704980068C0681821884304998A6851
:100B000010430968C86004980068006903218907D8
:100B1000884304994A68104309680861FFE704980C
:100B20000168C868604A1040C8600498017E890363
:100B3000427ED2031143827E52031143826A521EC7
:100B4000531E9A4112038918C26811430269921E0A
:100B500053425A41920011432422805C40000143D9
:100B60000298084302900498C07E012817D1FFE73D
:100B70000498807E002806D1FFE70298012109042D
:100B8000084302900AE00499886B2022104388638E
:100B90000499C86B01221043C863FFE7FFE704987C
:100BA000C069FF21C231884208D0FFE70498C169BB
:100BB000006A0143029808430290FFE7029A0498F2
:100BC0000168C8681043C8600498C06A0121090719
:100BD000884223D0FFE70498C06A01281ED0FFE7AF
:100BE0000498C06A022819D0FFE70498C06A032855
:100BF00014D0FFE70498C06A04280FD0FFE70498D8
:100C0000C06A05280AD0FFE70498C06A062805D004
:100C1000FFE70498C06A07280ED1FFE7049802682E
:100C200050690721884350610498C26A0A400168EC
:100C3000486910434861FFE704980068C0681B4991
:100C40000840029988420CD1FFE704990020C8634C
:100C50000498806B0121084302218843049988632A
:100C60000FE00498806B1021084302218843049907
:100C70008863049AD16B01200143D16303A90870F2
:100C8000FFE708E00499886B10221043886303A9EA
:100C900001200870FFE7039805A90870FFE705A881
:100CA000007806B080BDC0461902FEFFE7FF3F8313
:100CB00080B588B0079000200690059004900390BE
:100CC0000290079800681449884223D1FFE7FFE7A4
:100CD00012480268012149020A4302600068084084
:100CE00001900198FFE7FFE70D4802680121C90460
:100CF0000A4302600068084000900098FFE7012066
:100D000002900320039000200490064802A900F0FE
:100D100071FAFFE708B080BD0024014018100240BE
:100D2000141002400008004880B586B0049003917A
:100D300004984069082803D1FFE70820019019E0D2
:100D400004980068C068C00700280FD0FFE7049926
:100D5000886B202210438863FFE704993422002027
:100D60008854FFE705A90120087085E00C20019058
:100D7000FFE7FFE700F0BEFB0290FFE70498006882
:100D80000068019908422AD1FFE70398401C002817
:100D900024D0FFE70398002808D0FFE700F0AAFB63
:100DA0000299401A0399884217D9FFE7049800680E
:100DB0000068019908420FD1FFE70499886B04226B
:100DC00010438863FFE70499342200208854FFE72A
:100DD00005A9032008704FE0FFE7FFE7CEE704997D
:100DE000886B012252021043886304980068C0682F
:100DF0000005800F002831D1FFE70498807E00288D
:100E00002CD1FFE70498006800680007002824D56B
:100E1000FFE70498006880680421084080080028E3
:100E20000FD1FFE70498016848680C22904348609E
:100E30000498806B01210843090288430499886360
:100E40000AE00499886B2022104388630499C86BD8
:100E500001221043C863FFE7FFE7FFE70498007E25
:100E6000002805D1FFE7049801680C200860FFE71F
:100E700005A900200870FFE705A8007806B080BD2E
:100E800080B584B0029001A9002008700298006823
:100E9000806804210840800800283FD1FFE7FFE771
:100EA00002983421405C012804D1FFE703A9022005
:100EB00008703BE00299342201208854FFE7FFE7E5
:100EC0000298407E012806D0FFE70298FFF7E4FB76
:100ED00001A90870FFE701A8007800281DD1FFE7ED
:100EE0000298806B012109020843124908400299C7
:100EF000886302990020C863FFE70299342200202A
:100F00008854FFE7029801681C2008600298016875
:100F10008868042210438860FFE703E001A90220EB
:100F20000870FFE7019803A90870FFE703A800789D
:100F300004B080BDFEF1FFFF80B584B0029001A92E
:100F400000200870FFE702983421405C012804D19A
:100F5000FFE703A9022008702DE002993422012046
:100F60008854FFE7FFE70298FFF7C3FA014601A89C
:100F700001700078002814D1FFE70298FFF713FBF7
:100F8000014601A801700078002809D1FFE7029806
:100F9000806B012108430902884302998863FFE7B7
:100FA000FFE7FFE70299342200208854FFE7019809
:100FB00003A90870FFE703A8007804B080BD000013
:100FC00086B0049003910292002001900090FFE708
:100FD00004984079012804D1FFE705A90220087090
:100FE0002CE0049901204871FFE7FFE704990220F3
:100FF00008710498006800680190029811498140C6
:101000000198884301900399086849680843009053
:101010000099029881400198084301900198049931
:1010200009680860049901200871FFE7049900200D
:101030004871FFE705A900200870FFE705A80078C0
:1010400006B07047FE0F000080B582B00090009897
:10105000002804D1FFE701A90120087017E00098DB
:101060000079002807D1FFE7009900204871009817
:1010700000F012F8FFE700990220087100990020A3
:101080000861009A0121117101A90870FFE701A808
:10109000007802B080BD000080B588B007900020C5
:1010A00006900590049003900290079800681549F7
:1010B000884224D1FFE7FFE713480268012149076E
:1010C0000A4302600068084001900198FFE7FFE7CB
:1010D0000E480268012149040A4302600068084082
:1010E00000900098FFE7102002900320039000205A
:1010F00004900920C00602A900F07CF8FFE708B0C0
:1011000080BDC046007400401C1002401410024014
:1011100085B00490039102920193002000900498FE
:10112000006800900398002806D1FFE70298009914
:1011300040180830009005E00298009940181430DB
:101140000090FFE7019800990860002005B0704703
:1011500083B001900091FFE701984079012804D104
:10116000FFE702A90220087040E0019901204871C0
:10117000FFE7FFE7019902200871009801228240F1
:10118000019801680868104308600098002810D191
:10119000FFE70198006800683C2108403C2807D11F
:1011A000FFE7019801684868012210434860FFE7A3
:1011B00010E00198006800680F2189040840884207
:1011C00007D1FFE701980168486802221043486090
:1011D000FFE7FFE7019901200871FFE7019900206F
:1011E0004871FFE702A900200870FFE702A8007815
:1011F00003B070478CB00B900A9100200990FFE774
:101200000A9800680999C840002800D15DE10A9851
:101210000068099A01219140084008900898002828
:1012200000D14EE10A98406803210840012807D008
:10123000FFE70A9840680321084002282CD1FFE705
:101240000B98806807900998400003218140079817
:10125000884307900A98C168099840008140079820
:101260000843079007980B9988600B98406807908F
:101270000998012181400798884307900A9840689F
:1012800010210840010909988140079808430790F8
:1012900007980B994860FFE70A98406803210840C7
:1012A000032816D0FFE70B98C06807900998400004
:1012B000032181400798884307900A98816809981C
:1012C0004000814007980843079007980B99C86031
:1012D000FFE70A98406803210840022820D1FFE771
:1012E0000B980999C90889004018006A0790099865
:1012F0004007C00E0F2181400798884307900A9845
:10130000016909984007C00E81400798084307907B
:1013100007980B99099AD208920089180862FFE78A
:101320000B980068079009984100032002468A4004
:101330000799914307910A9949680140099840002B
:10134000814007980843079007980B9908600A980E
:1013500080798007002800D1B2E0FFE79B4802684F
:1013600001210A4302600068084006900698FFE7E2
:1013700009980321884356494058079009988007E7
:10138000000F0F2181400798884307900B9809218F
:10139000C906884203D1FFE7002005902DE00B9895
:1013A0004C49884203D1FFE70120049022E00B98CA
:1013B0004949884203D1FFE70220039017E00B98C8
:1013C0004649884203D1FFE7032002900CE00B99C5
:1013D000434A0420052300939142019001D00098D4
:1013E000019001980290FFE702980390FFE70398AD
:1013F0000490FFE704980590FFE705990998800796
:10140000000F814007980843079007980999032225
:1014100091432F4A885033480068079008990798ED
:10142000884307900A988079C006002805D5FFE711
:101430000899079808430790FFE70798294908602B
:1014400029480068079008990798884307900A98E8
:1014500080798006002805D5FFE70899079808439A
:101460000790FFE707982049086020480068079028
:1014700008990798884307900A9880798007002880
:1014800005D5FFE70899079808430790FFE70798F5
:10149000164908601648006807900899079888431D
:1014A00007900A988079C007002805D0FFE70899BF
:1014B000079808430790FFE707980D490860FFE782
:1014C000FFE70998401C09909AE60CB07047C046A7
:1014D000080001400004004800080048000C0048D3
:1014E00000100048080401400C04014004040140BD
:1014F00000040140054800687047C046244802784F
:1015000002490868801808607047C046140100202E
:1015100080B5AC490868102210430860032000F031
:1015200005F800F039F8002080BDC04680B584B0D1
:101530000290A84800680190154801787D20C000FD
:10154000FEF7ECFE01460198FEF7E8FE00F0A2FD72
:10155000002804D0FFE703A90120087014E00298D6
:10156000032809D8FFE702990022D04300F032F89F
:1015700002980849086003E003A90120087003E00D
:1015800003A900200870FFE703A8007804B080BD1D
:10159000040000200800002082B0FFE70B4802682A
:1015A00001210A4302600068084001900198FFE7AA
:1015B000FFE707480268012109070A430260006843
:1015C000084000900098FFE702B0704718100240F2
:1015D0001C10024080B584B0034603A8037002913A
:1015E000019200214056029901F06EF904B080BDCD
:1015F00080B584B0029001910298002804D1FFE7E1
:1016000003A901200870D8E001986E4909680122F9
:101610001140884212D9FFE76A48026801218A43D3
:10162000019B1A430260006808400199884204D077
:10163000FFE703A901200870BFE0FFE702980078E8
:101640008007002816D5FFE7029800784007002899
:1016500007D5FFE7A1490868072212021043086076
:10166000FFE79E490868F0229043029A926810436F
:101670000860FFE702980078C007002861D0FFE704
:101680000298406801280BD1FFE74F4800688003AB
:10169000002804D4FFE703A9012008708DE02CE0A6
:1016A0000298406802280BD1FFE747480068800194
:1016B000002804D4FFE703A9012008707DE01BE0A7
:1016C0000298406803280BD1FFE740480068800378
:1016D000002804D4FFE703A9012008706DE00AE0A8
:1016E000394800688007002804D4FFE703A90120D7
:1016F000087062E0FFE7FFE7FFE778490868032228
:101700009043029A526810430860FFF7F3FE00907E
:10171000FFE7724800680C21084002994968890077
:1017200088420DD0FFE7FFF7E5FE0099401A2A49ED
:10173000884204D3FFE703A9032008703DE0E8E7EF
:10174000FFE701981F49096801221140884212D21F
:10175000FFE71C48026801218A43019B1A4302608B
:10176000006808400199884204D0FFE703A90120DE
:10177000087022E0FFE702980078400700280AD5A9
:10178000FFE756490868072212029043029AD2687E
:1017900010430860FFE700F021F850490968C9B21A
:1017A0000A090B49895CC8400A4908600320FFF711
:1017B000BDFE03A900200870FFE703A8007804B06D
:1017C00080BDC0460020024000100240341002409C
:1017D000EC2A0008000000208913000080B586B0C4
:1017E0000020059004900390029001903B4800680F
:1017F000059005980C21084000900C2868D80098A6
:10180000810001A040588746CF180008D118000871
:10181000D1180008D11800083D180008D118000898
:10182000D1180008D118000843180008D118000882
:10183000D1180008D1180008C91800082C480190D8
:1018400049E005990F20820411408A0C2549895CE2
:1018500002912549096801402448405C049005989C
:101860000321C90308400121090488420BD1FFE785
:10187000049A1F4800231946FEF7A8FC029AFEF7B7
:101880008DFC03901DE005980321C90308408842A0
:101890000BD1FFE7049A124800231946FEF796FC85
:1018A000029AFEF77BFC03900AE0049A104800239A
:1018B0001946FEF78BFC029AFEF770FC0390FFE7D7
:1018C000FFE70398019006E00548019003E0FFE779
:1018D00007480190FFE7019806B080BD0410024060
:1018E000006CDC02FC2A00082C1002400C2B0008C3
:1018F00000127A0080B588B006900698002804D1BE
:10190000FFE707A901200870B1E306980078C00737
:10191000002800D197E0FE4800680C210840042808
:1019200011D0FFE7FA4800680C21084008281AD1B6
:10193000FFE7F74800680321C903084001210904B3
:10194000884210D1FFE7F34800688003002809D5DA
:10195000FFE706984068002804D1FFE707A90120A7
:10196000087084E36EE0FFE706984068012807D11D
:10197000FFE7E849086801221204104308602CE0E0
:101980000698406800280BD1FFE7E2490868012269
:1019900013049843086008689204904308601BE0B1
:1019A0000698406805280BD1FFE7DA49086801224C
:1019B00093041843086008681204104308600AE0A2
:1019C000D449086801221304984308600868920407
:1019D00090430860FFE7FFE7FFE7FFE706984068EE
:1019E000002817D0FFE7FFF785FD0590FFE7C948FE
:1019F0000068800300280CD4FFE7FFF77BFD059902
:101A0000401A652804D3FFE707A9032008702EE3D6
:101A1000EDE716E0FFF76EFD0590FFE7BD480068B3
:101A2000800300280CD5FFE7FFF764FD0599401AF5
:101A3000652804D3FFE707A90320087017E3EDE743
:101A4000FFE7FFE7FFE706980078800700287AD5D0
:101A5000FFE7AF4800680007800F002811D0FFE7BC
:101A6000AB4800680C210840082824D1FFE7A848AB
:101A700000680321C90308400121C90388421AD123
:101A8000FFE7A44800688007002809D5FFE706980B
:101A9000C068012804D0FFE707A901200870E6E22A
:101AA0009C490868F8229043069A1269D2001043B4
:101AB0000860FFE746E00698C068002825D0FFE7E9
:101AC00094490868012210430860FFF713FD059050
:101AD000FFE790480068800700280CD4FFE7FFF775
:101AE00009FD0599401A032804D3FFE707A903203D
:101AF0000870BCE2EDE787490868F8229043069A2F
:101B00001269D200104308601BE082490868012274
:101B100090430860FFF7EEFC0590FFE77D48006802
:101B2000800700280CD5FFE7FFF7E4FC0599401A71
:101B3000032804D3FFE707A90320087097E2EDE725
:101B4000FFE7FFE7FFE706980078000700283ED58B
:101B5000FFE70698C06900281CD0FFE76E490868B7
:101B6000012210430860FFF7C5FC0590FFE76A48B3
:101B70000068800700280CD4FFE7FFF7BBFC05993D
:101B8000401A032804D3FFE707A9032008706EE278
:101B9000EDE71BE060490868012290430860FFF709
:101BA000A9FC0590FFE75C480068800700280CD579
:101BB000FFE7FFF79FFC0599401A032804D3FFE7CE
:101BC00007A90320087052E2EDE7FFE7FFE7069858
:101BD00000784007002800D4C1E002A90020087066
:101BE0004E480068C000002810D4FFE7FFE74B48CC
:101BF0000268012109070A43026000680840019059
:101C00000198FFE702A901200870FFE74448006837
:101C1000C00500281DD4FFE74149086801221202CF
:101C200010430860FFF766FC0590FFE73C4800683A
:101C3000C00500280CD4FFE7FFF75CFC0599401AAB
:101C4000652804D3FFE707A9032008700FE2EDE73A
:101C5000FFE7FFE706988068012806D1FFE73149D2
:101C6000086801221043086029E00698806800286F
:101C70000AD1FFE72B4908680122904308600868F1
:101C800004229043086019E00698806805280AD16C
:101C9000FFE7FC4908680422104308600868012235
:101CA0001043086009E0F749086801229043086082
:101CB0000868042290430860FFE7FFE7FFE7FFE7BB
:101CC00006988068002818D0FFE7FFF713FC0590FE
:101CD000FFE7EC480068800700280DD4FFE7FFF716
:101CE00009FC0599401AE849884204D3FFE707A98F
:101CF00003200870BBE1ECE724E0FFF7FBFB059055
:101D0000FFE7E0480068800700281AD50CE0C046CD
:101D10000410024000100240241002401C10024037
:101D20000070004020100240FFF7E4FB0599401AC4
:101D3000D549884204D3FFE707A90320087096E13C
:101D4000DFE7FFE702A80078012807D1FFE7CC49C9
:101D500008680122120790430860FFE7FFE7069832
:101D60000078C006002864D5FFE70698406901287E
:101D700029D1FFE7C54908680422104308600868B4
:101D8000012210430860FFF7B5FB0590FFE7BF484D
:101D90000068800700280CD4FFE7FFF7ABFB05992C
:101DA000401A032804D3FFE707A9032008705EE167
:101DB000EDE7B6490868F8229043069A9269D20086
:101DC0001043086034E006984069401D00280ED199
:101DD000FFE7AE4908680422904308600868F822CB
:101DE0009043069A9269D200104308601FE0A74909
:101DF00008680422104308600868012290430860C4
:101E0000FFF778FB0590FFE7A048006880070028EF
:101E10000CD5FFE7FFF76EFB0599401A032804D3A2
:101E2000FFE707A90320087021E1EDE7FFE7FFE7DF
:101E3000FFE7069800788006002867D5FFE78E4800
:101E400000680C2108400C280FD0FFE78A48006882
:101E50000C210840082818D1FFE7874800680321B3
:101E6000C9030840884210D1FFE788480068800312
:101E7000002809D5FFE70698006A012804D0FFE78B
:101E800007A901200870F2E03FE00698006A0028E8
:101E90001DD0FFE77D490868012212041043086045
:101EA000FFF728FB0590FFE77848006880030028CB
:101EB0000CD4FFE7FFF71EFB0599401A032804D353
:101EC000FFE707A903200870D1E0EDE71CE06F49A8
:101ED00008680122120490430860FFF70BFB05908D
:101EE000FFE76A480068800300280CD5FFE7FFF78A
:101EF00001FB0599401A032804D3FFE707A9032033
:101F00000870B4E0EDE7FFE7FFE7FFE70698406AF7
:101F1000002800D1A7E0584800680C210840082894
:101F200071D0FFE70698406A02284ED1FFE7534977
:101F300008680122120690430860FFF7DBFA05905B
:101F4000FFE74E480068800100280CD5FFE7FFF747
:101F5000D1FA0599401A032804D3FFE707A9032003
:101F6000087084E0EDE7FFE7494908680F229043D5
:101F7000069A126B104308603F4908687B22D2031F
:101F80009043069BDA6A9B6A1A4310430860FFE796
:101F90003A4908680122120610430860FFF7AAFABE
:101FA0000590FFE735480068800100280CD4FFE762
:101FB000FFF7A0FA0599401A032804D3FFE707A901
:101FC0000320087053E0EDE71CE02C49086801226B
:101FD000120690430860FFF78DFA0590FFE7274847
:101FE0000068800100280CD5FFE7FFF783FA059908
:101FF000401A032804D3FFE707A90320087036E03E
:10200000EDE7FFE72EE00698406A012804D1FFE7DC
:1020100007A9012008702AE01748006804901C48AE
:102020000068039004980321C90308400699896A4F
:10203000884211D1FFE703980F2108400699096BE8
:10204000884209D1FFE704980F21890408400699C6
:10205000C96A884204D0FFE707A90120087006E09A
:10206000FFE7FFE7FFE707A900200870FFE707A8E1
:10207000007808B080BDC046041002400010024045
:102080001C1002402010024089130000341002404E
:102090002C10024080B582B00190019800F0A8FA9F
:1020A00002B080BD85B003900291FFE703983C2108
:1020B000405C012804D1FFE704A90220087053E026
:1020C00003993C2201208854FFE7FFE703993D2252
:1020D00002208854039800684068019003980068C3
:1020E00080680090019870218843019002980168EF
:1020F0000198084301900198039909684860039882
:1021000000687549884213D0FFE7039800680121F1
:10211000890788420CD0FFE7039800686F4988421E
:1021200006D0FFE7039800686D4988420ED1FFE7AB
:1021300000988021884300900298416800980843E5
:1021400000900098039909688860FFE703993D2291
:1021500001208854FFE703993C2200208854FFE7C0
:1021600004A900200870FFE704A8007805B07047B4
:1021700080B582B000900098002804D1FFE701A943
:10218000012008703FE000983D21405C002808D104
:10219000FFE700993C2200208854009800F038F8AE
:1021A000FFE700993D2202208854009901C900F000
:1021B0007DFA0099462201208854FFE700993E22CB
:1021C0000120885400993F22885400994022885465
:1021D000009941228854FFE7FFE70099422201203D
:1021E00088540099432288540099442288540099C5
:1021F00045228854FFE700993D220120885401A917
:1022000000200870FFE701A8007802B080BD000040
:1022100082B00190019800680121890788420CD1A1
:10222000FFE7FFE70648026801210A4302600068F1
:10223000084000900098FFE7FFE702B07047C046F3
:102240001C10024083B0019001983D21405C0128A0
:1022500004D0FFE702A90120087039E001993D226E
:1022600002208854019800681B49884213D0FFE778
:10227000019800680121890788420CD0FFE7019886
:1022800000681649884206D0FFE7019800681449A3
:10229000884212D1FFE70198006880680721084052
:1022A00000900098062807D0FFE7019801680868A9
:1022B000012210430860FFE706E001980168086802
:1022C000012210430860FFE702A900200870FFE721
:1022D00002A8007803B07047002C014000040040C1
:1022E0000040014080B586B00490039102A900200F
:1022F0000870FFE704983C21405C012804D1FFE707
:1023000005A902200870AEE004993C2201208854FF
:10231000FFE7FFE704993D220220885404980068F3
:102320008068019001987721884301900198FF21EE
:10233000090288430190019804990968886003980C
:1023400000680090002875D0FFE70098102871D031
:10235000FFE7009820286DD0FFE70098302869D06B
:10236000FFE70098402858D0FFE7009850283AD05F
:10237000FFE70098602843D0FFE7009870280DD051
:10238000FFE7009801210903884206D0FFE7009883
:1023900001214903884216D053E056E004980068B2
:1023A000039B99685A68DB6800F00CFA049800688F
:1023B0008068019001987721084301900198049961
:1023C0000968886041E004980068039B99685A682E
:1023D000DB6800F0F7F9049801688868012292032D
:1023E0001043886031E004980068039A5168D2680D
:1023F00000F018FA04980068502100F0FEF924E07B
:1024000004980068039A5168D26800F033FA04987F
:102410000068602100F0F1F917E004980068039A61
:102420005168D26800F0FEF904980068402100F07D
:10243000E4F90AE0049800680399096800F0DDF9FE
:1024400003E002A901200870FFE704993D22012062
:102450008854FFE704993C2200208854FFE7029843
:1024600005A90870FFE705A8007806B080BDFFE762
:10247000FEE7000080B586B000220192059204922A
:102480000392184802901849016042608260C2605D
:102490000121016104234361027642768276C2768D
:1024A0008023C3618B0203622423C2548162FEF73E
:1024B000C3FA002803D0FFE7FEF772F9FFE70A200E
:1024C000039001200103049100070590054803A92A
:1024D000FEF76EF9002803D0FFE7FEF761F9FFE78A
:1024E00006B080BD780000200024014080B582B095
:1024F0000020019000900D480D490160FEF7A4FDF9
:10250000002803D0FFE7FEF74BF9FFE724200090F7
:102510000022019205486946FEF752FD002803D0CB
:10252000FFE7FEF73DF9FFE702B080BDB8000020ED
:102530000074004082B0FFE70C4802680121C90422
:102540000A4302600068084001900198FFE7FFE736
:1025500006480268012149040A43026000680840F5
:1025600000900098FFE702B07047C0461410024088
:1025700080B588B0002101910791069105910491E1
:102580000391029117480122920702602F224260B4
:1025900081606322C26001618161FFF7E9FD00286B
:1025A00003D0FFE7FEF7FCF8FFE7012000030490EB
:1025B0000C4804A9FFF796FE002803D0FFE7FEF7BA
:1025C000EFF8FFE72020029000200390054802A9C1
:1025D000FFF768FD002803D0FFE7FEF7E1F8FFE70B
:1025E00008B080BDCC000020FFE7FEE770477047D1
:1025F00080B584B002900298401E000E002803D0DF
:10260000FFE70120039011E00298401E094908608D
:1026100000200190C043032100F056F901980649BB
:102620000860064A072111600390FFE7039804B091
:1026300080BDC04614E000E018E000E010E000E0DB
:1026400080B5FEF75BFF80BD80B592B005A8009015
:102650003421FDF761FE009800210491039102915D
:1026600001913022059201220D920A9210220B92C2
:102670000E91FFF73FF9002803D0FFE7FEF790F82F
:10268000FFE70720019003200290002003900490B0
:1026900001A80121FEF7ACFF002803D0FFE7FEF7F9
:1026A0007FF8FFE712B080BD7047000083B0029052
:1026B000019102980068009002983C4988420BD032
:1026C000FFE7029801218907884205D0FFE70298B9
:1026D000374988420AD1FFE700987021884300906B
:1026E00001984168009808430090FFE702982F493D
:1026F00088421FD0FFE7029801218907884219D03C
:10270000FFE702982A49884214D0FFE70298294936
:1027100088420FD0FFE70298274988420AD0FFE796
:1027200002982649884205D0FFE70298244988424A
:102730000BD1FFE70098032109028843009001981C
:10274000C168009808430090FFE700988021884303
:10275000019949690843009000980299086001981E
:1027600080680299C862019800680299886202989C
:102770000E4988420FD0FFE702980F4988420AD0DD
:10278000FFE702980D49884205D0FFE702980C49FF
:10279000884205D1FFE70198006902990863FFE7C5
:1027A00002990120486103B07047C046002C0140E7
:1027B000000400400020004000400140004401406F
:1027C0000048014085B0049003910292019304985F
:1027D000806800900098FF210902884300900399C7
:1027E0000298019A12021043014300980843009096
:1027F00000980499886005B0704783B002900191F9
:102800000298806800900098702188430090019899
:1028100000990843072108430090009802998860B6
:1028200003B0704785B00490039102920498006A47
:1028300000900499086A0122904308620498806914
:1028400001900198F02188430190029801010198BC
:102850000843019000980A2188430090039900984A
:1028600008430090019804998861009804990862CF
:1028700005B0704785B00490039102920499086AEC
:102880001022904308620498806901900498006ABD
:10289000009001980F2109038843019002980103D9
:1028A0000198084301900098A02188430090039864
:1028B00001010098084300900198049988610098EC
:1028C0000499086205B0704770B582B0024601A84D
:1028D0000270009100214056002816D4FFE7002422
:1028E00001A908570322D3431840174A80580957B3
:1028F0008C07E50EFF24AC40A043009CA401E4B289
:10290000AC402043194088501AE001A908780F24F0
:10291000204008380322D34318400A4A8058002533
:1029200049578D07EE0EFF25B540A843009DAD0128
:10293000EDB2B54028432140083919408850FFE7DF
:1029400002B070BD1CED00E000E400E080B582B094
:1029500000200190FEF7DCFDFFF776FEFFF7EAFDB1
:10296000FFF788FDFFF7C2FDFFF702FE00F002F857
:10297000FFE7FEE780B588B05B48FFF763FC2F20D8
:1029800005903D4900F094F80020079000F080F891
:1029900046480690FEF774FA07990698C9430491D1
:1029A000FEF7C2F90698FEF73FF801460698334A4B
:1029B0001180FEF7C1FA082000F06AF80698FEF7C9
:1029C0005FFA04990698FEF7AFF90698FEF72CF81F
:1029D000014606982A4A1180FEF7AEFA102000F050
:1029E00057F80698FEF74CFA04990698FEF79CF9FA
:1029F0000698FEF719F801460698224A1180FEF75C
:102A00009BFA182000F044F80698FEF739FA04996A
:102A10000698FEF789F90698FEF706F8014606982B
:102A2000194A1180FEF788FA079800F031F80598E6
:102A3000312100F03DF80698FEF722FA0799134875
:102A4000FEF786FBFFE71948019000210291C94378
:102A5000FEF76AF90198FDF7E7FF029A0146074879
:102A600001800388094803901146FEF751FB029943
:102A70000398FEF76DFBE6E70F27000072000020C9
:102A8000700000207600002074000020B8000020B4
:102A900080B582B00190019904488160FDF7CCFFB8
:102AA000002801D0FFE7FFE702B080BD78000020DA
:102AB00080B584B001910246019803A90A80029072
:102AC0000948012292070260098841600021816063
:102AD000029AC26001618161FFF74AFB002801D0C0
:102AE000FFE7FFE704B080BDCC000020000000003D
:102AF00000000000010203040607080902030405A0
:102B0000060708090A0B0C0D0E0F10100102030432
:102B100005060708090A0B0C0D0E0F10402B0008C4
:102B2000000000201000000004010008502B0008E5
:102B3000100000200807000020010008000000002D
:102B400000127A00010000000400000000000000F4
:04000005080000C12E
:00000001FF
