:020000040800F2
:10000000A00D00207D010008932200089122000825
:1000100000000000000000000000000000000000E0
:10002000000000000000000000000000972200080F
:10003000000000000000000095220008992200083E
:100040008F0100088F0100088F0100088F01000850
:100050008F0100088F0100088F0100088F01000840
:100060008F0100088F010008C9100008D510000892
:100070008F0100088F0100088F0100088F01000820
:100080008F0100088F0100088F0100088F01000810
:100090008F0100088F0100088F0100088F01000800
:1000A0008F0100088F0100088F0100088F010008F0
:1000B0008F0100088F0100088F01000800F002F88E
:1000C00000F04CF812A030C8083824182D18AC42A3
:1000D00001D100F043F80FCCA246AB460CA730CFBD
:1000E0002D1B083F3F197C427F1E54442D090426D6
:1000F000F441641EAC4201D300F030F801263342D3
:1001000000D0FB1A3343984754465D46DFE70000B2
:10011000DC300000FC300000103A02D378C878C10F
:10012000FAD8520701D330C830C101D504680C6039
:1001300070470000704700000023002400250026BF
:10014000103A01D378C1FBD8520700D330C100D593
:100150000B6070471FB51FBD10B510BD00F052FFFA
:100160001146FFF7F7FF02F09DF800F06AFF03B4B5
:10017000FFF7F2FF03BC00F06DFF00000748804767
:1001800007480047FEE7FEE7FEE7FEE7FEE7FEE77B
:1001900004480549054A064B70470000A1220008A3
:1001A000BD000008A0070020A00D0020A00900202D
:1001B000A009002001E004C0091F0429FBD28B071D
:1001C00001D50280801CC90700D002707047002949
:1001D0000BD0C30702D00270401C491E022904D371
:1001E000830702D50280801C891EE3E70022EEE728
:1001F0000022DFE770477047704700000246C80FD3
:10020000C00781434B0030B54B405B009B0D20D0B5
:100210001923DB06C91801231B05994220DB03249F
:10022000A40704251346AB400BD3002B04D1EB06E7
:1002300013409B00E34204D40124640700231219F5
:100240005941FF231B0599420BD2C9000143500FAE
:1002500009E0CB0204D501430803024305D0054859
:1002600030BDFF21C905084330BD084607210905F7
:10027000884330BD0000C07FF0B50C46871A9C4112
:100280000D46861A9D4103D2C01BA141D21963417C
:100290000D0D1F0DC94EEC1BAE435CD07F057F0DCD
:1002A0000026002F51D02D05AC46A943DD020123C5
:1002B000ED0A1B051D4320231B1B24D41746E740D2
:1002C000381871412F46E740CC199D402818314617
:1002D00061410C0D27D161449A4013D50023401C85
:1002E000594152000ED14008400001224B005205F6
:1002F000D34207D305204007C14201D5B04900E0F1
:10030000B0493046F0BD6B00002A00D001229A1897
:100310001F23203C1B1B01D5002302E0E5402818C9
:1003200071410C0DD7D0012424050919C407CD074C
:1003300040084908E40F28436144002CD5D000242C
:10034000401C61419A40D0D1CDE76A05520DD9D108
:10035000C90FC907D5E79C4D4E00002801D00124E4
:1003600000E0002434195F00002A01D0012600E0DB
:100370000026BE19954FAC420CD8AE420AD8B44202
:1003800006D001256D05EC42BCD010461946F0BDE3
:100390009942FCD000203946F0BDF0B51FB40C46A0
:1003A0000F46811A9F412546861A9D4106D2012596
:1003B000ED076F40401ABC4152187B41210D1E0DC4
:1003C0008D1BAC467D4D8D437ED075056D0D7CD06B
:1003D0000D05AE46AC431B031B0B794D52429D41AC
:1003E000202366469B1B14D31746F7403818002677
:1003F0000090744160462F460741E41900989D40E3
:100400002818664116D4714671189A4025D50123E3
:1004100020E093182A466A415200002B00D0521C5B
:100420001E23203E9B1B002B61DD3541EE17281853
:100430006641E8D5001876415B1C9A4000D3401C09
:100440004B05F3181524E34010D3002B52D071460E
:100450007118D30FC01802D3491C05B0F0BD012399
:10046000DB079A42F9D140084000F6E70122520525
:10047000B21801D1002853D00123CC0ADB029943E2
:10048000891E002A08D1020C03D0020C0004103986
:1004900002E00246002020390023550B05D112024C
:1004A0000823550B01D152010D23550C01D1120126
:1004B0001B1DD50C01D192009B1C150D01D15200C2
:1004C0005B1C2025EE1A01E02CE022E00546F540F9
:1004D00015439840CA1AE10769181305C918002A7C
:1004E000BBDA032040070818C10FC9070FE07146A7
:1004F0006118B2E7F10740080843711071444A00DF
:100500000CD001235B059A42A7D2C90FC90700206E
:10051000A3E74905490D26D1002001E00028F4D1C8
:1005200000219AE7284D6600002801D0012100E053
:10053000002171185F00002A01D0012600E000268A
:10054000BE19224FA94210D8AE420ED8B14208D0EF
:1005500001256D05E94206D01946A8024140104622
:100560007BE79C4201D0214677E70020394674E7BB
:1005700010B50C465C4005D50124E4076340FFF745
:100580000CFF10BDFFF778FE10BD30B40C465C4088
:1005900004D50124E407634030BC6DE630BCFCE6C2
:1005A00070B50124E40761400D465D4002D4FFF7B9
:1005B00063FE70BD6340FFF7F0FE70BDFF070000F3
:1005C0000000F0FF0000F07F0000E0FF0000F87F77
:1005D000F0B5F94D0C091E092C402E402F468BB06A
:1005E000A7437DD0B543FCD0002E7AD0002CFCD0A0
:1005F0000D465D40ED0F2543AC1BFF25AD0464198E
:100600000894C502440DC9022143500DDC02044385
:100610000120C00701430443D2020191200C110CB8
:1006200000958C46010423468B430A9161460904D8
:10063000E24D8A430991010A7D44491980390978BC
:1006400005464D4301266D18F605751B6943C90C17
:10065000640B891C4C436418B5012C1B250C2E041B
:10066000B4434C434D43210C691889090591009D01
:10067000E90701D00121C90704912C4601996708B7
:10068000CD072F434C08059DE10B4D432D0C29460A
:100690006646754302950D4645432E46029D7D1BD9
:1006A000B44100950D465D4301942C0C2F040D467A
:1006B0005543AE462D0C3D43029503947546049C6C
:1006C0002D04641B049406D2029C039D641C002626
:1006D00075410395029401AC70CC009F7D1B01E035
:1006E0003EE162E1B4410904009507910194059946
:1006F000A4086143090C0C464443650BE7040C460F
:1007000066467443A646640B3C43039502947446C4
:10071000049DE4042C1B049406D2029C039D641CDB
:10072000002675410395029401AC70CC009F7D1B9F
:10073000B44101940C465C430095650FE7000C46FC
:100740005443A646640F3C43039502947446049DAB
:10075000E4002C1B049406D2029C039D641C00261A
:1007600075410395029401AC70CC009F7D1BB44190
:10077000AE09AF06049DC900AD092F43049DA40630
:10078000AD060495079D344369180791059DE10B5B
:100790004D432D0C29466646754302950D4645434B
:1007A0002E46029D7D1BB44100950D465D4301948C
:1007B0002C0C2F040D465543AE462D0C3D4302959F
:1007C00003947546049C2D04641B049406D2029C79
:1007D000039D641C002675410395029401AC70CC06
:1007E000009F7D1BB44101948C050694079C890AE7
:1007F000611800950791019C0599A4086143090CB3
:100800000D464543680BEF040D46644665436C0B8B
:100810003C43049FED047D1BAC4602D20025641CC2
:100820006841009E019D371B85410846584301954C
:100830000C46460FC5005443600F28436546E4004C
:100840002C1B02D20025401C6E41019D3F1AB54170
:100850002846BD09800628438446A009BF064E02EB
:100860000699A40676180743079D002068410A9957
:10087000079019430020099B00906046FF1913431D
:100880004041E20F64003A43A4460446D71A8C4123
:10089000A04203D90120009020463A46C70F941881
:1008A00040416246D20F2243644664000494009C97
:1008B000BE466400D71AA446044602978C41774688
:1008C000002F01D1A04204D96046401C8446029A00
:1008D0002046C40FA64694184041049A0546D20FFC
:1008E000224364466400D31A8D417146002901D128
:1008F000A84202D928461A46641C10430122002847
:1009000000D0164361020020079B891904465C4110
:100910000223002C02DB491813466441089DCE0ACD
:100920002D145D194B056705E10A2C050D19089971
:100930003E43C9076940002B08D0934006D30022EC
:10094000761C5141002B01D1760876001C4A002DFF
:1009500043DB154241D0AA433FD030460BB0F0BD37
:1009600006180D464D41174C7642AC411AD39518E6
:100970001C465C41134A6D42A24113D30122520529
:100980004C00D4420AD15C00D4420BD04B4002D57B
:1009900092021143E2E749004908DFE75940C90FD5
:1009A000C90718E000200849D8E7054801420DD1E1
:1009B0000342F7D0F2E700000000FF07A02A000082
:1009C0000000F07F0000E0FF0000F87F1148594070
:1009D0000143C01241400020C0E70123089A9B0652
:1009E0009A4205DC032252078918C90FC907B5E7E7
:1009F000052252078918074A1143D2125140ADE728
:100A000070B515461C4602460B4628462146FFF7A0
:100A1000DFFD70BDFFFFFF7F1F22030C02D10F22FD
:100A2000000402D0030E03D004E00020014670470A
:100A30000002083A030F01D10001121F830F01D1F8
:100A40008000921E002801DB4000521E1205511842
:100A50004205C012411810467047C10FC90700D0A7
:100A60004042012292071143D6E701218907D3E7CB
:100A7000F0B58B4C0F09254689B0BD437BD01D09CD
:100A80002646AE43FAD00E465E402740F60F3E4360
:100A9000254071D024012142FBD0FF24AD19A404CC
:100AA0002D1B039501252D05DB02DB0AC9022B4313
:100AB000C90A29431E010901040F130F050121432F
:100AC0001701880B820391432D098C46A90B1E4305
:100AD0008A039543B30B9A0396433F09BA0B9403D9
:100AE000A74302962E467E430497B6464E19D71961
:100AF0000C460196544305977E43371B7646BF1B31
:100B00003601B646BE0B361900967646BC04371938
:100B1000009C01D3641C00946400002F01D00126C6
:100B20003443029E049F754366467E4304967600D6
:100B300034196E0034190094029C019E1C196643FE
:100B4000751BAE46069465464519059C05956C4394
:100B5000594375460891691A0191049E0146514313
:100B6000A41B0491611A009C0791E10605D061095C
:100B70000122114302E072E06EE06109089D002746
:100B80002C0A2D066918049D7C412A0A2D06691835
:100B9000019D6241AC0DAD026D185441079A910D53
:100BA000920255196141029A644658435443069B88
:100BB000059A5A43121A131B9A0E9B015B187A412D
:100BC000010B0005C3185141220A200644195A415D
:100BD0009A4200D2491C01204002814203D31523CE
:100BE0000226F64302E014230326F6432020C51A0A
:100BF000A9401746AF40DA400A4320460399D8403F
:100C00000914731819055118039A3843D207514033
:100C1000AC4009D00122944006D30022401C51412F
:100C2000002C01D1400840001E4A934212D30122F9
:100C300003989206904207DB0520400709181A48DE
:100C40000143C012414004E0032040070818C10FCF
:100C5000C907002009B0F0BD0020F107FAE7051828
:100C60000C464C4111486D42A04115D394181A46C8
:100C70005A410E48644290410ED301204A0040057B
:100C8000824209D35A00824206D35940C90F084A0A
:100C9000C90700201143DDE700200649DAE700001C
:100CA0000000FF07FE070000FFFFFF7F0000E0FFDE
:100CB0000000F07F0000F87F0121C90501234118E1
:100CC00042001B06D3185B0E0AD0C1100722D206C1
:100CD000891840075242D14201D552008918704705
:100CE000090208D50146002A03D0C10FC907002018
:100CF000704710467047420202D0002002497047F8
:100D0000072109050143F4E70000F87F10B501460B
:100D10009E240002CA15A307002A02D01843002A05
:100D200004DBA21A002A0CDDD04010BD1206120E00
:100D300001D140004008A21A03D4D040404200280C
:100D4000F3DDFF2248001206904201D9002010BDB9
:100D5000C817C043584010BD10B500F049F80068EE
:100D600010BD10B5044600F043F8046010BD00004B
:100D7000C10D10B50906090E2ED0FF2931D07E29EC
:100D80002DD319D0962916D2024675398A4005D03E
:100D9000002402468A4003D3012302E00124F8E73D
:100DA00000230222CA41511E8843002B03D0801821
:100DB000002C00D0904310BD0121420201D101223C
:100DC00000E00022C00FC0070029F4D0002AF2D1B1
:100DD0007F21C905084310BDC00FC00710BD002109
:100DE000EFE74102FAD0014810BD00000000C07FCB
:100DF0000048704710000020F0B5FF252D04C609FB
:100E0000C209FF2704462E400137CB093E43484024
:100E10002A402B400746002A6BD0002B69D0AA42FB
:100E200067D0AB4265D0002800DA32460125ED05D7
:100E300029432C4309022002090AD21A4B0C7F24B1
:100E4000E31A434C000A7C44E35C7D242404121919
:100E500014145B00A218884201D3521C00E0400029
:100E600049420C465C4324115C43DB016415E318E2
:100E7000040A5C43C502200D0C4644436419250A4C
:100E80005D432303EC0C0D46654300030019EB188A
:100E90004C42A34201D35B18401CD4052018002B00
:100EA00007D05B00C91804D3401C002901D14008B9
:100EB00040003F2189048A4209D3002A08DC110638
:100EC000090F04D0032149074018C00FC007F0BD27
:100ED00001224100120689187F2252069142F6D261
:100EE00005214907C84201D59010F0BDFF20C0057B
:100EF000F0BD002F00DA32461648AA4207D2AB42B4
:100F000005D21902090E17D0F80FC007F0BDFF2552
:100F100063002D06AB42F9D84900A942F6D8AB428E
:100F200001D1A942F2D0A94201D1002101E0610022
:100F30004908D0050843F0BD1102090EFBD0FF207F
:100F40000243D005F0BD0A460146104654E70000B2
:100F5000322300000000C07F1F22030C02D10F22A9
:100F600000041CD0030E01D10002083A030F01D186
:100F70000001121F830F01D18000921E002801DBA7
:100F80004000521ED20551180212511819229040E9
:100F900004D3491C002801D149084900084670477C
:100FA000C10FC90700D04042012292071143D3E785
:100FB00001218907D0E7000010B5FF22C30D1340BF
:100FC00009D05A4007D0914205DA5C42A14202DDC5
:100FD000C905081810BDC40FE407002B06D0002A6D
:100FE00006D0002902DBFF20C0050443204610BDC7
:100FF0004102FCD0004810BD0000C07F004870478F
:10100000100000207546FFF7F9FFAE46050069465F
:101010005346C008C000854618B020B5FFF7B8F8A1
:1010200060BCB64600260027C0C5C0C5C0C5C0C547
:10103000C0C5C0C5C0C5C0C5403D490849008D46B2
:10104000704710B50446C046C0462046FFF78FF8EB
:1010500010BD000001491820ABBEFEE726000200CB
:10106000704710B5446A204600F004F90120207151
:1010700010BD10B5446A204600F0DCF80120207154
:1010800010BD10B5446A2069042101432161204646
:1010900000F0F2F80120207110BD10B5446A2069FB
:1010A000042101432161204600F0C6F8012020718F
:1010B00010BD80B5406A00F0DEF880BD80B5406AA2
:1010C00000F0B9F880BD000080B5B34800F0DAF94F
:1010D00080BDC04680B5B24800F0D4F980BDC0469E
:1010E000EFF3108072B6FEE770B582B004460120BF
:1010F000002C38D0A16AC90635D41C4801680125E6
:10110000294301600068284001900198204600F0C2
:1011100031F8A06A002802D12420002121540220A5
:10112000A0624348811C2268511A4A424A41110177
:101130000F4B8B4002689A436368A6681E43E368BE
:10114000334326691E4363693343A6691E438E40B9
:1011500016430660E169002903D0E90502680A43E5
:101160000260A562002002B070BDC04618100240A7
:101170007E3F0000F0B587B00026069605960496DF
:101180000396029600681C49884211D0284988427B
:1011900030D1012040047F490A6802430A6009688F
:1011A00001400191032003900290019840270EE036
:1011B0000120400477490A6802430A600968014037
:1011C0000191032003900C2002900198802704963F
:1011D0000920C40602AD2046294600F04BFA07203C
:1011E0000690059604960220039002972046294611
:1011F00000F040FA07B0F0BD1E00014010B501211B
:10120000002812D0826AD2060FD4826A012A0CD139
:1012100007498B1C046801229C4200D112040B6810
:1012200013430B60022181620021084610BDC046B5
:101230001C0001407047704770470000B0B543790B
:10124000012B01D10220B0BD02230371084B934052
:10125000046825689D430B684968194391402943F8
:10126000216000214171012202710846B0BDC046D3
:10127000FE0F00007047704770470079704710B547
:1012800000280FD004460079002804D100206071A6
:10129000204600F009F80220207100202061012181
:1012A000217110BD012010BDF0B58DB0044600279E
:1012B0000C970B9700683649884201D00DB0F0BDFD
:1012C0000126700733498A6802438A608A680240AF
:1012D0000792079870040A6802430A60096801408F
:1012E00007910A9703200990302008900798092059
:1012F000C00608A900F0BEF9274DB20206963102D9
:101300008023102625487838286002966E60AF60EA
:101310000393EB600591296104926A61AF61EF610B
:10132000284600F019F9002801D0FFF7D9FE0F2058
:1013300001900002194E316881433160A5606C62F2
:10134000174D30466438286002986860AF60039893
:10135000E8600599296104986861AF61EF613068C0
:1013600008433060284600F0F7F8002801D0FFF766
:10137000B7FE01980003316881433160E5606C621B
:10138000069800033168014331600DB0F0BDC046DE
:101390000074004014100240E0020020A800024047
:1013A00024030020F0B583B004464079012802D11F
:1013B000022003B0F0BD0D4601920293089902206D
:1013C000207101276771002D14D0E068274A284B4F
:1013D000284E8662C36202633B07226816681E437A
:1013E000166008291BD004291CD000291DD11646DF
:1013F00014361BE0A068204B204E214A8262C66250
:1014000003633A032668336813433360082914D012
:10141000042915D0002916D13246083214E01646A8
:101420001C3603E01646183600E0002679071368DC
:101430000B431360019932460BE03246103203E051
:1014400032460C3200E00022790333680B433360EC
:101450000199029B00F0CCF800206071AF40216838
:101460000A683A430A6003B0F0BDC0469B1000080A
:10147000BD1000087310000883100008B3100008A6
:1014800063100008F0B585B0C16B026C04273C46C0
:101490000292944003910E68214631404B424B41E9
:1014A000049005682868014639404A424A411A4377
:1014B00030D0019501230227014639404C424C416E
:1014C000029A974037421D461946334600D02146BE
:1014D000049E3446203400292CD00821084047427D
:1014E00047411046D340190700D53D46002D019BCA
:1014F0001ED119680E229143196001210A468240CB
:10150000039B5A60B163002222706170316B002925
:101510000CD10DE02968890602D42968B9432960F5
:1015200003994C60049EF16A002901D03046884737
:1015300005B0F0BD019B1968890605D419680A2217
:1015400091431960012161700021217003994F605E
:10155000B16A0029EAD1EBE7F0B585B000282CD0BC
:1015600004460646203602207070A1CC23686168CC
:101570000191A1680291E1680391216904910168D8
:10158000164A0A402A433A431A4301990A430299E8
:101590000A4303990A4304990A4302600025E5625D
:1015A00035700F4A0C3C11460831884200D20D4A72
:1015B000E263884205D30D4904E00125284605B0C1
:1015C000F0BD09490818142101F0BCF9800020641D
:1015D00001207070284605B0F0BDC0460FC0FFFF67
:1015E0000004024000000240F8FFFDBFF8FBFDBF11
:1015F000F0B582B004462020255C0220012D2AD0BF
:1016000026462036012535707778012F21D102201A
:1016100070700020A06326683768AF433760E76BBF
:101620000097276C0195BD40009F7D6073606368E3
:10163000102B174600D00F46B760102B00D0114674
:10164000F1603168E26A002A019B06D00E22114344
:1016500009E00021317002B0F0BD0A22114331606F
:10166000316804229143316031681943316002B01E
:10167000F0BD0000F0B589B001900A68002A00D1E1
:10168000B5E00D465B48019B834201D0052000E098
:1016900004201721C9065918890A9B055918009179
:1016A000042900D3009000231C461F4607950AE03A
:1016B000114331607F1C2A681046F8401B1DA41C92
:1016C000002800D193E001260396BE403240F1D0BD
:1016D0000292069303200146A140C9436A68154659
:1016E00005406B1E012B059213D80491019988685F
:1016F000049B1840079BDB68A34003438B60D00624
:10170000C00FB8404B68B3430E460499034373605F
:1017100006E0032D019E03D10546069B029A20E0B8
:10172000F0680840079B9B68A3400343F360022DC9
:10173000069B029A15D11C20184004910F2181406C
:10174000FB089B00F3181D6A8D43079E3169814099
:10175000294319620499069B7068019E0325059030
:101760000540A54030680840284330600598800354
:10177000800F079D9ED04E490868039D284308604E
:101780000868284008900C2018400F21814003234E
:101790003D469D43089B194EAB598B4300998140B0
:1017A0001943A951079D144EB1686868C3020BD54F
:1017B0001143B160F16883020BD49143F160716809
:1017C00083030BD491430AE09143B160F168830233
:1017D000F3D51143F16071688303F3D51143069B80
:1017E00071603168C00300D562E7914361E709B0D9
:1017F000F0BDC04600100048000401400800014050
:10180000002A02D018228150704728228150704748
:10181000054800687047C0461A48007802490A68BF
:10182000101808607047C0469807002080B58B48A4
:10183000016810220A430260032000F005F800F05E
:1018400023F8002080BDC04670B504467D20C0004E
:101850000C4E317801F076F801468848006801F0B6
:1018600071F800F061FB0125032C08D8002806D18F
:101870000025E84321462A4600F028F874602846EF
:1018800070BDC0460000002082B0094801680122F6
:1018900011430160016811400191019911074268EB
:1018A0000A434260406808400090009802B07047C8
:1018B00018100240002805D41F2108400121814052
:1018C000014801607047C04600E100E0002805D4EF
:1018D0000322034693430A4A9A1803E00C2202406B
:1018E000064BD2188007C00E8901C9B28140FF2380
:1018F00083401068984308431060704714ED00E07F
:1019000000E400E0F0B581B0002846D00446534A18
:101910001368012003408B4208D213680126B343A9
:101920000B431360126832408A4237D1009121681C
:101930008A074B4B10D54A0706D5072212021B68AF
:101940001343474A1360464B1A68F0239A43A3682F
:101950001343434A1360424BC90722D13F490868E9
:1019600001263040009A904205D90868B0430860CB
:101970000868C00712D12078400706D5072000026A
:1019800019688143E068084318601A681007810FDE
:101990003548022912D2044650E00126304601B0F3
:1019A000F0BD616803290DD01A1F02290FD001294B
:1019B00012D1126892030646F0D511E0032926D110
:1019C0002A4C3BE01A6B92030646E7D508E0126802
:1019D00092010646E2D503E0126892070646DDD57D
:1019E00018680326B04308431860FFF711FF074645
:1019F0001C4D1B4B18680C2101406068800081421F
:101A0000ACD0FFF705FFC01BA842F2D9C6E70321FF
:101A1000CB031349896A0F240C401549095D9402D0
:101A20001A40240F134D2C5D9A4202D033049A427F
:101A300000E00E4800F086FF4443094B186800069A
:101A4000000F0D49085CC4400C4804600320FFF7F8
:101A5000FBFE0026304601B0F0BDC046002002402B
:101A6000041002408813000000127A00006CDC02AF
:101A7000DC310008CC310008BC310008080000202F
:101A8000F0B587B004460120002C00D145E2049057
:101A90002078C007F94E05940CD071680C200140E5
:101AA000042900D090E03068800303D560680028E6
:101AB00000D120E12078800721D570680007800FD1
:101AC0000ED070680C210140082900D09DE0032051
:101AD000C003716801400120C003814200D094E03E
:101AE00030688007059C03D5E068012800D002E13A
:101AF0003068F82188432169C90001433160059CA1
:101B00002078000724D42078400737D42078C006F6
:101B100000D4D3E005984069411D00D1C2E00128FE
:101B200000D030E1706B042101437163706B0121BF
:101B300001437163FFF76CFE0546706B800700D5AB
:101B4000B4E0FFF765FE411B03200229F5D9E4E16B
:101B5000706AE169002900D181E0012108437062C7
:101B6000FFF756FE0546706A8007CCD4FFF750FE9B
:101B7000401B0228F7D9032007B0F0BD01200390D5
:101B80000107F0690840029006D1F0690843F0614E
:101B9000F0690840069006980191E14F3868C00549
:101BA0004AD403980402386820433860FFF730FEB7
:101BB0000546386820423FD1FFF72AFE401B6428C3
:101BC000F7D9032007B0F0BD71680140082908D19A
:101BD0000320C0037168014001200004814200D14C
:101BE00061E7616801204704002900D117E1052958
:101BF00000D12BE1012900D12CE1010432688A4394
:101C0000326081043068884327E13068059CE168D0
:101C1000002936D0012108433060FFF7F9FD054661
:101C20003068800700D563E7FFF7F2FD401B02280C
:101C3000F6D9032007B0F0BD05988068002800D1D0
:101C4000B6E0052800D1C9E0012800D1CAE0306A19
:101C5000039988433062306A04218843C5E001213A
:101C600088437062FFF7D4FD0546706A800700D490
:101C700049E7FFF7CDFD401B0228F6D9032007B046
:101C8000F0BD012188433060FFF7C2FD0546306892
:101C9000800700D433E7FFF7BBFD411B0320022977
:101CA000F5D93AE1706B042188437063706BF821B9
:101CB000884305998969C9000143716305980078D3
:101CC00080060BD571680C2001400C2939D1706B4E
:101CD000800303D50598006A01280CD10598446A51
:101CE000002C00D1E1E070680C210140082905D1E9
:101CF000012C00D0C4E0049807B0F0BD012002061A
:101D000031680492914331604706FFF781FD054633
:101D1000022C0BD1049C3068384200D1DEE0FFF782
:101D200077FD411B03200229F5D9F6E030683842DF
:101D300000D1BAE0FFF76CFD411B03200229F5D961
:101D4000EBE071680140082905D10320C0037168E8
:101D500001408142BBD0706B0599096A002900D10E
:101D6000A9E001210A04104370634C04FFF750FD01
:101D70000546706B2042B1D1FFF74AFD411B03209D
:101D80000229F6D9C9E0706B042101437163706BBD
:101D9000012188437063FFF73BFD0546706B8007A8
:101DA0008CD5FFF735FD411B03200229F6D9B4E09D
:101DB000306A039988433062306A04218843306274
:101DC000584CFFF725FD0546306A80071DD5FFF703
:101DD0001FFD411B0320A142F6D99EE0306A042179
:101DE00001433162306A0399084330624D4CFFF77A
:101DF0000FFD0546306A800707D4FFF709FD401B39
:101E0000A042F7D9032007B0F0BD02980028059C36
:101E100000D07BE6F06901998843F06176E6010421
:101E200032688A4332608004316881433160FFF751
:101E3000EFFC0546059C3068384200D13AE6FFF7D2
:101E4000E7FC411B03206429F5D966E08104326870
:101E50000A4332600104306808433060FFF7D8FC61
:101E600005463068384200D024E6FFF7D1FC401B1D
:101E70006428F6D9032007B0F0BDC0460010024028
:101E80000320C20370680240F16A059CA36A9A426B
:101E9000049D0DD10F221140236B994208D191046A
:101EA0000840E16A8842284637D1002007B0F0BDDB
:101EB000284607B0F0BD01210A04904370634C042A
:101EC000FFF7A6FC0546706B204200D106E7FFF73E
:101ED0009FFC411B03200229F5D91EE0F06A0F2167
:101EE0008843059A116B0143F1627B20C00371683E
:101EF0008143D06A0843916A01437160306820438E
:101F00003060FFF785FC044630683842CDD1FFF7DA
:101F10007FFC011B03200229F6D907B0F0BDC046A3
:101F20000070004088130000401E010E01D0012007
:101F300070470749074A5060074803680B40032170
:101F400089075918016000209060072111607047CF
:101F5000FFFFFF0010E000E020ED00E010B53C22A4
:101F6000825C012A01D1022010BD02463C320223CC
:101F70005370006843687024A3430C681C43836853
:101F80004460684CA04207DC0124A407A04209D0A9
:101F9000674CA04206D00AE0634CA04202D0634CDA
:101FA000A04204D18024A3434968194381600020E2
:101FB00010700121517010BD70B5002829D0044661
:101FC00005463C356878002804D10020287020465A
:101FD00000F06CF80220687021680E680120830709
:101FE000994205D0514A914202D0514A914219D1A9
:101FF00070229643A26832434A4EB14216DD264B08
:10200000994208DC494B994218D0474B994215D068
:102010003FE0012070BD214B99420FD0204B9942E7
:102020000CD036E032463F4EB142E8DC994205D052
:102030003F4B994202D01B4B99422AD103231B02EA
:102040009A432369134322463E328026B343A6694E
:102050001E430E60E368CB6263688B62124BCB1841
:102060009B0A8E05F318072B06D806469E40E123EF
:102070001E4201D063690B6348611072107050708A
:102080009070D070107150719071D0716870002094
:1020900070BD1346D7E7C046FF43014000480140EA
:1020A000004401400020004000D4FEBF81B0012167
:1020B0008A070068904201D001B070470448026866
:1020C0000A430260006808400090009801B0704721
:1020D0001C1002403D21415C01290FD101463D31D8
:1020E00002220A7000680F49884209DC0121890731
:1020F00088420BD00E49884208D00CE0012070477E
:102100000949884202D00949884204D181680722DE
:102110000A40062A03D0016801220A430260002017
:102120007047C046FF2B014000400140002C014099
:1021300000040040F0B53C22825C012A01D102205B
:10214000F0BD02463C3202235370504E3346773B7B
:102150000468A0681840A0600D6800234F2D1EDCA5
:102160001F2D35DD202D37D0302D35D0402D00D01E
:1021700086E0206A256A0126B5432562A569F02616
:10218000B543CE6836012E43A6610A25A8434968A7
:1021900001432162A06847210143302069E06F2D8F
:1021A00026DD01204703BD4240D00003854218468A
:1021B0001AD0702D64D1A06830404D688E68C9680F
:1021C0002E43090231430143A160A068772139E021
:1021D000002D01D0102D53D1A068702188430543F4
:1021E00007202843A0601846137001215170F0BDEC
:1021F000502D29D0602D43D11020C043256A0540C1
:1022000025620F252D03A669AE43CD682D03354306
:10221000266AA561A025AE434968090131432162C0
:10222000A16867250D430540A56024E0A5683540F9
:102230004E688F68C9683743090239432943A16052
:102240008003A168014315E0206A256A0126B54391
:102250002562A569F026B543CE6836012E43A661F6
:102260000A25A843496801432162A0685721014318
:1022700020208143A1601846137001215170F0BDE8
:102280000120137001215170F0BDC046FF00FFFF17
:10229000FEE7FEE77047704780B5FFF7BDFA80BDE7
:1022A0007047000094B0FFF7C1FA06AC201D302142
:1022B000FDF79EFF00250F9501200E902026069623
:1022C0002046FFF7DDFB002803D0EFF3108072B645
:1022D000FEE705950495032003900720029002A8CD
:1022E00001242146FFF70EFB002803D0EFF31080F6
:1022F00072B6FEE701960A9560045A4A11680143D6
:10230000116011680140029102980920C606670217
:10231000304639462A46FFF773FA0995089507941F
:10232000069706A93046FFF7A5F94E4908682043ED
:10233000086008682040069006980A26304629461C
:102340002A46FFF7C3FA3046FFF7B4FA0B263046A9
:1023500029462A46FFF7BAFA3046FFF7ABFA424E53
:10236000602742487061B761F56135627562B56298
:10237000F5623563756330461430FEF7B5FE00280C
:1023800003D0EFF3108072B6FEE73948306007954E
:10239000242006903046FEF772FF002803D0EFF3AA
:1023A000108072B6FEE7304806A900252A46FEF7DF
:1023B00045FF002803D0EFF3108072B6FEE72A4EE7
:1023C00006A910223046FEF739FF002803D0EFF3AC
:1023D000108072B6FEE72748856163212F22A3078C
:1023E000036042608560C1600561099508950795A5
:1023F000039501990291FFF7DFFD002803D0EFF369
:10240000108072B6FEE7200306901A4806A9FFF76F
:1024100091FE002803D0EFF3108072B6FEE7154856
:1024200002A9FFF79BFD002803D0EFF3108072B6DE
:10243000FEE77566E0020D49891C7164B764F564B6
:1024400035657065B565F565356644363046FEF729
:102450004BFE002803D0EFF3108072B6FEE700F0C9
:102460000BF8FEE714100240780000201C00014029
:10247000007400406803002086B0E74D2846FFF74F
:1024800029FEE648FEF7BAFEE548FEF7B7FE002053
:10249000A8612F210124A20714C528606960A860E3
:1024A000083D2846FFF788FDDE4E601E80B2FEF72D
:1024B000DCFADD4A1746DD4BFEF7DAFA0022059218
:1024C000DB4BFEF785F83A463D46DA4BFEF750F80F
:1024D000FDF794FE00F02EFCFEF7EEFBD64AD74B3C
:1024E000FEF7C6FA059F3A46D54BFEF741F8FDF7D1
:1024F00085FED44900F026FDFEF708FC3080A0B22E
:10250000FEF7B3FA2A46FE4BFEF7B2FA3A46FD4B07
:10251000FEF75EF82A46FC4BFEF72AF8FDF76EFE42
:1025200000F008FCFEF7C8FBF84AF94BFEF7A0FAEA
:102530003A46F84BFEF71CF8FDF760FEF64900F04E
:1025400001FDFEF7E3FB7080361DA41CFB2CACD113
:102550007D208000E84904900C180126E94F701E88
:1025600080B2FEF782FAE54AE54BFEF781FA0025D4
:102570002A463B46FEF72CF8E84AE94BFDF7F8FF00
:10258000FDF73CFE00F0D6FBFEF796FBDF4AE04B82
:10259000FEF76EFA2A46DF4BFDF7EAFFFDF72EFE47
:1025A000DD4900F0CFFCFEF7B1FB2080B0B2FEF7B2
:1025B0005CFAD24AD24BFEF75BFA2A463B46FEF75C
:1025C00007F8D64AD64BFDF7D3FFFDF717FE00F00C
:1025D000B1FBFEF771FBCD4ACD4BFEF749FA2A4617
:1025E000CC4BFDF7C5FFFDF709FECB4900F0AAFC77
:1025F000FEF78CFB6080241DB61CFB2EAFD1049827
:10260000BD490C180126BF4F701E80B2FEF72DFA8F
:10261000BA4ABB4BFEF72CFA00252A463B46FDF78B
:10262000D7FFC04AC04BFDF7A3FFFDF7E7FD00F061
:1026300081FBFEF741FBB54AB54BFEF719FA2A4676
:10264000B44BFDF795FFFDF7D9FDB34900F07AFCD7
:10265000FEF75CFB2080B0B2FEF707FAA74AA84B52
:10266000FEF706FA2A463B46FDF7B2FFAD4AAE4BEF
:10267000FDF77EFFFDF7C2FD00F05CFBFEF71CFBE3
:10268000A24AA34BFEF7F4F92A46A24BFDF770FFCE
:10269000FDF7B4FDA04900F055FCFEF737FB608064
:1026A000241DB61CFB2EAFD1049893490D180127A9
:1026B000944E781E80B2FEF7D8F9904A904BFEF700
:1026C000D7F9002422463346FDF782FF974A984BFC
:1026D000FDF74EFFFDF792FD00F02CFBFEF7ECFA44
:1026E0008A4A8B4BFEF7C4F922468A4BFDF740FF1E
:1026F000FDF784FD884900F025FCFEF707FB2880E4
:10270000B8B2FEF7B2F97D4A7D4BFEF7B1F9224629
:102710003346FDF75DFF854A854BFDF729FFFDF741
:102720006DFD00F007FBFEF7C7FA784A784BFEF71D
:102730009FF92246774BFDF71BFFFDF75FFD7649BA
:1027400000F000FCFEF7E2FA68802D1DBF1CFB2F95
:10275000AFD1784F784E059425460BE008460446E5
:102760006D4900F0EFFBFEF7D1FA78820A35143795
:10277000FA2D69D0752D3046059928D23882762DEC
:10278000304629D2F881772D30462AD2B881782D6B
:1027900030462BD27881792D30462CD238817A2D53
:1027A00030462DD2F8807B2D30462ED2B8807D2D3C
:1027B000304600D308463880681C7D28304600D358
:1027C00008467880742DC9D27F20C005C7E7084627
:1027D0003882762D3046D5D30846F881772D30469D
:1027E000D4D30846B881782D3046D3D308467881B3
:1027F000792D3046D2D3084638817A2D3046D1D350
:102800000846F8807B2D3046D0D30846B8807D2D11
:102810003046CFD2CFE7C046680300208C000020AE
:10282000BC000020B00300201F85EB51B81E1940EA
:1028300000406F40B81EF93F5C8FC2F5285CDF3F57
:102840000000E03F00F07F453C4E0F207070746048
:102850000120400203900920C0060290384F254C09
:102860002068002545620122029803990592FEF72F
:10287000C7FF2068416AC26A921E91420ED2416A25
:10288000C26A921E914209D2416AC26A921E914264
:1028900004D2416AC26A921E9142EBD30298039914
:1028A0002A46FEF7ADFF35702846C0B27178C140A8
:1028B00005980140B1700095049841430E484218B4
:1028C000FA24384629462346FEF76CFD0095102170
:1028D0003846184A2346FEF765FD3846FEF7CDFC1C
:1028E0000228FAD03078401C3070C1B20829DCD3FD
:1028F000B5E7C04668030020B00300201F85EB51F8
:10290000B81E194000406F40B81EF93F5C8FC2F5F9
:10291000285CDF3F0000E03F00F07F45D7A3703D1B
:102920000AD702406766666666660F407B14AE474C
:10293000E1FA1540EC000020FF0F000070000020BD
:102940007800002043088B421AD3002203098B42EF
:1029500079D3030A8B425ED3030B8B4242D3030C21
:102960008B4227D30902FF2212BA030C8B4202D3F7
:102970001212090203D0030B8B4233D31AE0D3E0C7
:10298000411A8041401C704703460B4371D44308F1
:102990008B42F5D3002203098B4254D3030A8B42A6
:1029A00039D3030B8B421DD3030C8B4202D39446C5
:1029B0006EE0090AC30B8B4201D3CB03C01A52410C
:1029C000830B8B4201D38B03C01A5241430B8B42C2
:1029D00001D34B03C01A5241030B8B4201D30B03AB
:1029E000C01A5241C30A8B4201D3CB02C01A5241D2
:1029F000830A8B4201D38B02C01A5241430A8B4295
:102A000001D34B02C01A5241030A8B4201D30B027D
:102A1000C01A5241CDD2C3098B4201D3CB01C01A97
:102A2000524183098B4201D38B01C01A52414309A1
:102A30008B4201D34B01C01A524103098B4201D38F
:102A40000B01C01A5241C3088B4201D3CB00C01AFC
:102A5000524183088B4201D38B00C01A5241430874
:102A60008B4201D34B00C01A5241411A524110000F
:102A70007047CA0F00D04942031000D34042534070
:102A800000229C4603098B422DD3030A8B4212D3AA
:102A90008901FC2212BA030A8B420CD389019211DC
:102AA0008B4208D3890192118B4204D3890137D01C
:102AB000921100E08909C3098B4201D3CB01C01AEE
:102AC000524183098B4201D38B01C01A5241430901
:102AD0008B4201D34B01C01A524103098B4201D3EF
:102AE0000B01C01A5241C3088B4201D3CB00C01A5C
:102AF000524183088B4201D38B00C01A5241D9D274
:102B000043088B4201D34B00C01A5241411A00D2F4
:102B100001465241104663465B1000D34042704765
:102B200063465B1000D3404201B50021004201D052
:102B3000C9430846C046C04602BDF0B4040C8BB27F
:102B4000264682B25E430D0C1046370C58433604BD
:102B500080190021794116466E43370C36048019DE
:102B6000794126466E438919F0BC7047410008023E
:102B700000D004200A0E01D001221043090EFF29C3
:102B800001D102210843012800D10520704710B56A
:102B90000121FEF711FA10BD10B500210846FEF71D
:102BA0002BF910BD5E2110B5C9430807FEF704FAE2
:102BB00010BD0000F0B50E4614465100FF2212066B
:102BC00087B0914203D31116316007B0F0BD0120E8
:102BD0002502C0070543E00D7838C206D20E20203A
:102BE000871A6000000E7838401181004D48784403
:102BF0000B189C464358002A14D060464068934006
:102C00000146F84003436046806891408646F8409C
:102C10000143039160467146C0689140F84001430A
:102C20000F4603E0604641680391876818462946CD
:102C3000FFF783FF0291049029460398FFF77DFF79
:102C40000391069038462946FFF777FF0F4606980E
:102C5000029B3D18049A0399BD4201D2012700E06E
:102C600000278818C019002F02D0884202D903E03B
:102C7000884201D2012100E0002159180A46203281
:102C80009709C20C89065203400337601143019033
:102C90000846FEF785F902900198FEF789F912219E
:102CA000C943FEF789F901902846FEF781F92521ED
:102CB000C943FEF781F900900199029800F0FCF8F1
:102CC000009900F0F9F80121C9024018050B2D0305
:102CD0002846029900F09AF9019900F097F90099B5
:102CE00000F088F9104900F02DF900900F492846AE
:102CF00000F028F9009900F0DFF800900C49284610
:102D000000F020F9009900F0D7F8002C00DB5CE718
:102D100001210907C91B31600121C907484007B0DB
:102D2000F0BD00006A050000DB0FC92F22AAFD29B3
:102D30000000C92FF0B502460446514B83B0400055
:102D40006946984209D273210906884202D20020BE
:102D5000C04300E00020009030E05000494B4008A4
:102D600098426BD24849104600F0ECF8FEF700F8A4
:102D70000746FDF7CBFF8007800F00904349384698
:102D800000F0E0F801904249384600F0DBF80646D2
:102D90004049384600F0D6F805463F49384600F02D
:102DA000D1F8214600F026F9294600F02FF93146E6
:102DB00000F02CF9019900F029F904462546009C01
:102DC000002C3FDBE007354E294608461AD000F0BC
:102DD000B9F80546324900F0B5F8324900F06CF810
:102DE000294600F0AFF8304900F066F8294600F0B7
:102DF000A9F87F21C90500F05FF8A10700D5704050
:102E000003B0F0BD00F09EF80746284900F09AF89C
:102E1000274900F051F8394600F094F8254900F0B0
:102E20004BF8394600F08EF8294600F08BF8294619
:102E300000F042F8A107E2D403B0F0BD1046FFF75E
:102E4000B9FEBAE7FF2168000906884209D2284680
:102E5000FFF78CFE042801D1FFF7A4FE284603B03B
:102E6000F0BD884206D10120FDF77BFFFFF794FEFD
:102E700003B0F0BD2846FFF78AFE03B0F0BD0000A6
:102E8000B61F927E490E494683F9223F1A61342CBF
:102E90000020A23300A0FD390000C93F00000080DF
:102EA000B93AB2BACA9F2A3DDDFFFFBE336D4CB9B5
:102EB000DA82083CA0AA2ABE70B50125ED070400FD
:102EC0004C4020D4441A01D2001B0919C60D4B00F6
:102ED000F2B2FF2A29D01B0E2CD000020C0228438C
:102EE0002C43D31ADC40051910D2280A02D3401C07
:102EF0006D0611D0761EF6058019FF2A00DA70BD26
:102F0000C00DC00570BD694000F086F80120054382
:102F1000C541521C761CE8E764089C40C901614029
:102F20008900E7D10124A043E4E71B0E440200D04E
:102F3000034870BD002AFCD1C00FC00770BD00BFA0
:102F40000000C07F70B5420064414B005C41120E2E
:102F500039D01B0E38D0FF2A3CD0FF2B3AD0D218E4
:102F60007F3A40024902400A490A4518ED0106002D
:102F70004E43000A090A48430104731A4019190C08
:102F80004318990F04D05B08012149075B1A521CB2
:102F9000D80904D3401CF50301D19D0607D0FF2AB0
:102FA00008D2D50506D0E4072043401970BD01259D
:102FB000A843F4E7002A01DCE00770BD2402FF20EB
:102FC0002043C00570BD1B0EFF2A03D0FF2B01D08C
:102FD000E00770BDFF2636064500B54206D84D0015
:102FE000B54203D8D218FF2A00D0E7E7004870BDE9
:102FF0000000C07F70B50125ED07684004004C401B
:1030000002D5694000F008F8FFF75CFF70B50125B4
:10301000ED0704004C4022D4441A02D26C40001B3D
:103020000919C60D4B00F2B2FF2A4BD01B0E50D02F
:1030300000020C02A8432C43D31ADC40051B05D523
:10304000AD0019D36D08761E521E37D0F605280A3A
:1030500001D2801970BD70416D0603D070BD69400A
:10306000FFF730FF9C4009026140490001D0401E3B
:1030700070BD0124A04370BD6D081DD001202B0C34
:1030800001D12D0410302B0E01D12D0208302B0F51
:1030900001D12D01001DAB0F01D1AD00801CEB0F44
:1030A00001D16D00401C361A121A6D00680AF50530
:1030B0004019012A02DB70BD002070BDC036300A05
:1030C000C00770BD1B0E440201D1FF2B00D1024886
:1030D00070BD002AF0D070BD0000C07F80807F7E70
:1030E0007D7C7B7A7978777676757473727171707E
:1030F0006F6E6E6D6C6C6B6A6A6968686766666530
:103100006464636362616160605F5F5E5E5D5D5CBD
:103110005C5B5B5A5A59595858575756565555552E
:103120005454535352525251515050504F4F4F4E8E
:103130004E4D4D4D4C4C4C4B4B4B4A4A4A494949DC
:10314000484848474747474646464545454444441E
:103150004443434343424242424141410000000054
:103160006E83F9A22915444ED15727FCC0DD34F5F2
:10317000999562DB4190433CAB6351FE818283842D
:1031800085868788898B8C8D8E8F91929395969763
:10319000999A9C9D9FA0A2A3A5A7A8AAACAEB0B2E5
:1031A000B3B5B7B9BCBEC0C2C5C7C9CCCED1D4D7E0
:1031B000D9DCDFE2E6E9ECF0F3F7FAFE000000000C
:1031C00000000000010203040607080902030405C9
:1031D000060708090A0B0C0D0E0F1010010203045C
:1031E00005060708090A0B0C0D0E0F101032000817
:1031F0000000002010000000180100082032000824
:1032000010000020900D00003801000800000000B0
:10321000010000000400000000127A00000000001D
:04000005080000BD32
:00000001FF
